{
  "contractName": "AdminUser",
  "abi": [
    {
      "inputs": [],
      "payable": false,
      "stateMutability": "nonpayable",
      "type": "constructor"
    },
    {
      "anonymous": false,
      "inputs": [
        {
          "indexed": false,
          "internalType": "address",
          "name": "caller",
          "type": "address"
        }
      ],
      "name": "AuthorizedCaller",
      "type": "event"
    },
    {
      "anonymous": false,
      "inputs": [
        {
          "indexed": false,
          "internalType": "address",
          "name": "caller",
          "type": "address"
        }
      ],
      "name": "DeAuthorizedCaller",
      "type": "event"
    },
    {
      "anonymous": false,
      "inputs": [
        {
          "indexed": true,
          "internalType": "address",
          "name": "_userAddress",
          "type": "address"
        },
        {
          "indexed": false,
          "internalType": "uint256",
          "name": "index",
          "type": "uint256"
        },
        {
          "indexed": false,
          "internalType": "string",
          "name": "name",
          "type": "string"
        },
        {
          "indexed": false,
          "internalType": "string",
          "name": "password",
          "type": "string"
        },
        {
          "indexed": false,
          "internalType": "string",
          "name": "email",
          "type": "string"
        },
        {
          "indexed": false,
          "internalType": "uint256",
          "name": "userrole",
          "type": "uint256"
        },
        {
          "indexed": false,
          "internalType": "bytes32",
          "name": "_hash",
          "type": "bytes32"
        }
      ],
      "name": "LogNewUser",
      "type": "event"
    },
    {
      "anonymous": false,
      "inputs": [
        {
          "indexed": true,
          "internalType": "address",
          "name": "_userAddress",
          "type": "address"
        },
        {
          "indexed": false,
          "internalType": "uint256",
          "name": "index",
          "type": "uint256"
        },
        {
          "indexed": false,
          "internalType": "string",
          "name": "email",
          "type": "string"
        },
        {
          "indexed": false,
          "internalType": "string",
          "name": "location",
          "type": "string"
        },
        {
          "indexed": false,
          "internalType": "string",
          "name": "password",
          "type": "string"
        }
      ],
      "name": "LogUpdateUser",
      "type": "event"
    },
    {
      "anonymous": false,
      "inputs": [
        {
          "indexed": true,
          "internalType": "address",
          "name": "previousOwner",
          "type": "address"
        }
      ],
      "name": "OwnershipRenounced",
      "type": "event"
    },
    {
      "anonymous": false,
      "inputs": [
        {
          "indexed": true,
          "internalType": "address",
          "name": "previousOwner",
          "type": "address"
        },
        {
          "indexed": true,
          "internalType": "address",
          "name": "newOwner",
          "type": "address"
        }
      ],
      "name": "OwnershipTransferred",
      "type": "event"
    },
    {
      "anonymous": false,
      "inputs": [
        {
          "indexed": false,
          "internalType": "uint256",
          "name": "upc",
          "type": "uint256"
        }
      ],
      "name": "ProduceByFarmer",
      "type": "event"
    },
    {
      "constant": true,
      "inputs": [],
      "name": "creationTime",
      "outputs": [
        {
          "internalType": "uint256",
          "name": "",
          "type": "uint256"
        }
      ],
      "payable": false,
      "stateMutability": "view",
      "type": "function"
    },
    {
      "constant": true,
      "inputs": [],
      "name": "lastAccess",
      "outputs": [
        {
          "internalType": "address",
          "name": "",
          "type": "address"
        }
      ],
      "payable": false,
      "stateMutability": "view",
      "type": "function"
    },
    {
      "constant": true,
      "inputs": [],
      "name": "owner",
      "outputs": [
        {
          "internalType": "address",
          "name": "",
          "type": "address"
        }
      ],
      "payable": false,
      "stateMutability": "view",
      "type": "function"
    },
    {
      "constant": false,
      "inputs": [],
      "name": "renounceOwnership",
      "outputs": [],
      "payable": false,
      "stateMutability": "nonpayable",
      "type": "function"
    },
    {
      "constant": true,
      "inputs": [],
      "name": "isOwner",
      "outputs": [
        {
          "internalType": "bool",
          "name": "",
          "type": "bool"
        }
      ],
      "payable": false,
      "stateMutability": "view",
      "type": "function"
    },
    {
      "constant": true,
      "inputs": [
        {
          "internalType": "address",
          "name": "_userAddress",
          "type": "address"
        }
      ],
      "name": "isUser",
      "outputs": [
        {
          "internalType": "bool",
          "name": "isIndeed",
          "type": "bool"
        }
      ],
      "payable": false,
      "stateMutability": "view",
      "type": "function"
    },
    {
      "constant": false,
      "inputs": [
        {
          "internalType": "address",
          "name": "_caller",
          "type": "address"
        }
      ],
      "name": "authorizeCaller",
      "outputs": [
        {
          "internalType": "bool",
          "name": "",
          "type": "bool"
        }
      ],
      "payable": false,
      "stateMutability": "nonpayable",
      "type": "function"
    },
    {
      "constant": true,
      "inputs": [
        {
          "internalType": "address",
          "name": "role",
          "type": "address"
        }
      ],
      "name": "rolesmapping",
      "outputs": [
        {
          "internalType": "uint256",
          "name": "",
          "type": "uint256"
        }
      ],
      "payable": false,
      "stateMutability": "view",
      "type": "function"
    },
    {
      "constant": false,
      "inputs": [
        {
          "internalType": "address",
          "name": "_caller",
          "type": "address"
        }
      ],
      "name": "deAuthorizeCaller",
      "outputs": [
        {
          "internalType": "bool",
          "name": "",
          "type": "bool"
        }
      ],
      "payable": false,
      "stateMutability": "nonpayable",
      "type": "function"
    },
    {
      "constant": false,
      "inputs": [
        {
          "internalType": "address",
          "name": "_userAddress",
          "type": "address"
        },
        {
          "internalType": "string",
          "name": "us_name",
          "type": "string"
        },
        {
          "internalType": "string",
          "name": "password",
          "type": "string"
        },
        {
          "internalType": "string",
          "name": "email",
          "type": "string"
        },
        {
          "internalType": "string",
          "name": "location",
          "type": "string"
        },
        {
          "internalType": "uint256",
          "name": "role",
          "type": "uint256"
        }
      ],
      "name": "setUser",
      "outputs": [
        {
          "internalType": "bytes32",
          "name": "_a",
          "type": "bytes32"
        },
        {
          "internalType": "uint256",
          "name": "index",
          "type": "uint256"
        }
      ],
      "payable": false,
      "stateMutability": "nonpayable",
      "type": "function"
    },
    {
      "constant": true,
      "inputs": [
        {
          "internalType": "bytes32",
          "name": "transactionhash",
          "type": "bytes32"
        }
      ],
      "name": "getdata",
      "outputs": [
        {
          "components": [
            {
              "internalType": "string",
              "name": "us_name",
              "type": "string"
            },
            {
              "internalType": "string",
              "name": "password",
              "type": "string"
            },
            {
              "internalType": "address",
              "name": "Createdby",
              "type": "address"
            },
            {
              "internalType": "uint256",
              "name": "creationTime",
              "type": "uint256"
            },
            {
              "internalType": "uint256",
              "name": "index",
              "type": "uint256"
            },
            {
              "internalType": "string",
              "name": "email",
              "type": "string"
            },
            {
              "internalType": "string",
              "name": "location",
              "type": "string"
            },
            {
              "internalType": "uint256",
              "name": "role",
              "type": "uint256"
            }
          ],
          "internalType": "struct AdminUser.User",
          "name": "used",
          "type": "tuple"
        }
      ],
      "payable": false,
      "stateMutability": "view",
      "type": "function"
    },
    {
      "constant": false,
      "inputs": [
        {
          "internalType": "address",
          "name": "_userAddress",
          "type": "address"
        },
        {
          "internalType": "string",
          "name": "email",
          "type": "string"
        },
        {
          "internalType": "string",
          "name": "location",
          "type": "string"
        },
        {
          "internalType": "string",
          "name": "password",
          "type": "string"
        }
      ],
      "name": "updateUser",
      "outputs": [
        {
          "internalType": "bool",
          "name": "success",
          "type": "bool"
        }
      ],
      "payable": false,
      "stateMutability": "nonpayable",
      "type": "function"
    }
  ],
  "bytecode": "0x60806040526005805490506006553480156200001a57600080fd5b5033600160006101000a81548173ffffffffffffffffffffffffffffffffffffffff021916908373ffffffffffffffffffffffffffffffffffffffff160217905550426002819055506001600760003373ffffffffffffffffffffffffffffffffffffffff1673ffffffffffffffffffffffffffffffffffffffff16815260200190815260200160002060006101000a81548160ff021916908360ff1602179055507f8afeca650897be3183b7c0d24eba96a1b990f75c4bd74a0cfb2c0a71aec48e6133604051620000ed91906200010c565b60405180910390a162000185565b620001068162000149565b82525050565b6000602082019050620001236000830184620000fb565b92915050565b600073ffffffffffffffffffffffffffffffffffffffff82169050919050565b600062000156826200015d565b9050919050565b60006200016a8262000171565b9050919050565b60006200017e8262000129565b9050919050565b611c9280620001956000396000f3fe608060405234801561001057600080fd5b50600436106100b45760003560e01c80638da5cb5b116100715780638da5cb5b146101a15780638f32d59b146101bf57806398b03b83146101dd578063b65500681461020d578063cbb3b50c1461023e578063d8270dce1461026e576100b4565b80630da4578b146100b95780631bcd250a146100e95780632c388d5d146101195780633480898b146101495780634209fff114610167578063715018a614610197575b600080fd5b6100d360048036036100ce919081019061148e565b61028c565b6040516100e09190611927565b60405180910390f35b61010360048036036100fe9190810190611465565b61044e565b6040516101109190611927565b60405180910390f35b610133600480360361012e9190810190611465565b610543565b6040516101409190611927565b60405180910390f35b610151610638565b60405161015e919061190c565b60405180910390f35b610181600480360361017c9190810190611465565b61065d565b60405161018e9190611927565b60405180910390f35b61019f610725565b005b6101a96107ce565b6040516101b6919061190c565b60405180910390f35b6101c76107f4565b6040516101d49190611927565b60405180910390f35b6101f760048036036101f29190810190611622565b61084c565b604051610204919061196b565b60405180910390f35b61022760048036036102229190810190611539565b610b76565b604051610235929190611942565b60405180910390f35b61025860048036036102539190810190611465565b6111e7565b604051610265919061198d565b60405180910390f35b610276611230565b604051610283919061198d565b60405180910390f35b60006001151561029b8661065d565b1515146102a757600080fd5b83600460008773ffffffffffffffffffffffffffffffffffffffff1673ffffffffffffffffffffffffffffffffffffffff16815260200190815260200160002060050190805190602001906102fd929190611236565b5082600460008773ffffffffffffffffffffffffffffffffffffffff1673ffffffffffffffffffffffffffffffffffffffff1681526020019081526020016000206006019080519060200190610354929190611236565b5081600460008773ffffffffffffffffffffffffffffffffffffffff1673ffffffffffffffffffffffffffffffffffffffff16815260200190815260200160002060010190805190602001906103ab929190611236565b508473ffffffffffffffffffffffffffffffffffffffff167f023f26309c8003051ddc866328d4e125ef45264482d40498f2a58a7015a335f7600460008873ffffffffffffffffffffffffffffffffffffffff1673ffffffffffffffffffffffffffffffffffffffff1681526020019081526020016000206004015486868660405161043a94939291906119a8565b60405180910390a260019050949350505050565b6000600160009054906101000a900473ffffffffffffffffffffffffffffffffffffffff1673ffffffffffffffffffffffffffffffffffffffff163373ffffffffffffffffffffffffffffffffffffffff16146104aa57600080fd5b6000600760008473ffffffffffffffffffffffffffffffffffffffff1673ffffffffffffffffffffffffffffffffffffffff16815260200190815260200160002060006101000a81548160ff021916908360ff1602179055507f9e8ca6ff03906e81e8a6a03d4f96b7edb0b97f0ed9d07ef1b699fff63438549682604051610532919061190c565b60405180910390a160019050919050565b6000600160009054906101000a900473ffffffffffffffffffffffffffffffffffffffff1673ffffffffffffffffffffffffffffffffffffffff163373ffffffffffffffffffffffffffffffffffffffff161461059f57600080fd5b6001600760008473ffffffffffffffffffffffffffffffffffffffff1673ffffffffffffffffffffffffffffffffffffffff16815260200190815260200160002060006101000a81548160ff021916908360ff1602179055507f8afeca650897be3183b7c0d24eba96a1b990f75c4bd74a0cfb2c0a71aec48e6182604051610627919061190c565b60405180910390a160019050919050565b6000809054906101000a900473ffffffffffffffffffffffffffffffffffffffff1681565b60008060058054905014156106755760009050610720565b8173ffffffffffffffffffffffffffffffffffffffff166005600460008573ffffffffffffffffffffffffffffffffffffffff1673ffffffffffffffffffffffffffffffffffffffff16815260200190815260200160002060040154815481106106db57fe5b9060005260206000200160009054906101000a900473ffffffffffffffffffffffffffffffffffffffff1673ffffffffffffffffffffffffffffffffffffffff161490505b919050565b600160009054906101000a900473ffffffffffffffffffffffffffffffffffffffff1673ffffffffffffffffffffffffffffffffffffffff167ff8df31144d9c2f0f6b59d69b8b98abd5459d07f2742c4df920b25aae33c6482060405160405180910390a26000600160006101000a81548173ffffffffffffffffffffffffffffffffffffffff021916908373ffffffffffffffffffffffffffffffffffffffff160217905550565b600160009054906101000a900473ffffffffffffffffffffffffffffffffffffffff1681565b6000600160009054906101000a900473ffffffffffffffffffffffffffffffffffffffff1673ffffffffffffffffffffffffffffffffffffffff163373ffffffffffffffffffffffffffffffffffffffff1614905090565b6108546112b6565b6009600083815260200190815260200160002060405180610100016040529081600082018054600181600116156101000203166002900480601f01602080910402602001604051908101604052809291908181526020018280546001816001161561010002031660029004801561090c5780601f106108e15761010080835404028352916020019161090c565b820191906000526020600020905b8154815290600101906020018083116108ef57829003601f168201915b50505050508152602001600182018054600181600116156101000203166002900480601f0160208091040260200160405190810160405280929190818152602001828054600181600116156101000203166002900480156109ae5780601f10610983576101008083540402835291602001916109ae565b820191906000526020600020905b81548152906001019060200180831161099157829003601f168201915b505050505081526020016002820160009054906101000a900473ffffffffffffffffffffffffffffffffffffffff1673ffffffffffffffffffffffffffffffffffffffff1673ffffffffffffffffffffffffffffffffffffffff1681526020016003820154815260200160048201548152602001600582018054600181600116156101000203166002900480601f016020809104026020016040519081016040528092919081815260200182805460018160011615610100020316600290048015610aba5780601f10610a8f57610100808354040283529160200191610aba565b820191906000526020600020905b815481529060010190602001808311610a9d57829003601f168201915b50505050508152602001600682018054600181600116156101000203166002900480601f016020809104026020016040519081016040528092919081815260200182805460018160011615610100020316600290048015610b5c5780601f10610b3157610100808354040283529160200191610b5c565b820191906000526020600020905b815481529060010190602001808311610b3f57829003601f168201915b505050505081526020016007820154815250509050919050565b60008060001515610b868961065d565b151514610b9257600080fd5b33600460008a73ffffffffffffffffffffffffffffffffffffffff1673ffffffffffffffffffffffffffffffffffffffff16815260200190815260200160002060020160006101000a81548173ffffffffffffffffffffffffffffffffffffffff021916908373ffffffffffffffffffffffffffffffffffffffff16021790555042600460008a73ffffffffffffffffffffffffffffffffffffffff1673ffffffffffffffffffffffffffffffffffffffff1681526020019081526020016000206003018190555086600460008a73ffffffffffffffffffffffffffffffffffffffff1673ffffffffffffffffffffffffffffffffffffffff1681526020019081526020016000206000019080519060200190610cb0929190611236565b5085600460008a73ffffffffffffffffffffffffffffffffffffffff1673ffffffffffffffffffffffffffffffffffffffff1681526020019081526020016000206001019080519060200190610d07929190611236565b5084600460008a73ffffffffffffffffffffffffffffffffffffffff1673ffffffffffffffffffffffffffffffffffffffff1681526020019081526020016000206005019080519060200190610d5e929190611236565b5083600460008a73ffffffffffffffffffffffffffffffffffffffff1673ffffffffffffffffffffffffffffffffffffffff1681526020019081526020016000206006019080519060200190610db5929190611236565b5082600460008a73ffffffffffffffffffffffffffffffffffffffff1673ffffffffffffffffffffffffffffffffffffffff1681526020019081526020016000206007018190555082600860008a73ffffffffffffffffffffffffffffffffffffffff1673ffffffffffffffffffffffffffffffffffffffff1681526020019081526020016000208190555060058890806001815401808255809150509060018203906000526020600020016000909192909190916101000a81548173ffffffffffffffffffffffffffffffffffffffff021916908373ffffffffffffffffffffffffffffffffffffffff16021790555050600160058054905003600460008a73ffffffffffffffffffffffffffffffffffffffff1673ffffffffffffffffffffffffffffffffffffffff168152602001908152602001600020600401819055506002888886898988604051602001610f1396959493929190611895565b604051602081830303815290604052604051610f2f91906118f5565b602060405180830381855afa158015610f4c573d6000803e3d6000fd5b5050506040513d601f19601f82011682018060405250610f6f919081019061164b565b600381905550600460008973ffffffffffffffffffffffffffffffffffffffff1673ffffffffffffffffffffffffffffffffffffffff16815260200190815260200160002060096000600354815260200190815260200160002060008201816000019080546001816001161561010002031660029004610ff0929190611311565b5060018201816001019080546001816001161561010002031660029004611018929190611311565b506002820160009054906101000a900473ffffffffffffffffffffffffffffffffffffffff168160020160006101000a81548173ffffffffffffffffffffffffffffffffffffffff021916908373ffffffffffffffffffffffffffffffffffffffff1602179055506003820154816003015560048201548160040155600582018160050190805460018160011615610100020316600290046110bb929190611311565b50600682018160060190805460018160011615610100020316600290046110e3929190611311565b50600782015481600701559050508773ffffffffffffffffffffffffffffffffffffffff167f140ebd35163a145904aac7e5f4b789d41e56d1a054e78a3786e3fcc1c92bced8600460008b73ffffffffffffffffffffffffffffffffffffffff1673ffffffffffffffffffffffffffffffffffffffff16815260200190815260200160002060040154898989600860008f73ffffffffffffffffffffffffffffffffffffffff1673ffffffffffffffffffffffffffffffffffffffff168152602001908152602001600020546003546040516111c496959493929190611a02565b60405180910390a260035460016005805490500391509150965096945050505050565b6000600860008373ffffffffffffffffffffffffffffffffffffffff1673ffffffffffffffffffffffffffffffffffffffff168152602001908152602001600020549050919050565b60025481565b828054600181600116156101000203166002900490600052602060002090601f016020900481019282601f1061127757805160ff19168380011785556112a5565b828001600101855582156112a5579182015b828111156112a4578251825591602001919060010190611289565b5b5090506112b29190611398565b5090565b6040518061010001604052806060815260200160608152602001600073ffffffffffffffffffffffffffffffffffffffff16815260200160008152602001600081526020016060815260200160608152602001600081525090565b828054600181600116156101000203166002900490600052602060002090601f016020900481019282601f1061134a5780548555611387565b8280016001018555821561138757600052602060002091601f016020900482015b8281111561138657825482559160010191906001019061136b565b5b5090506113949190611398565b5090565b6113ba91905b808211156113b657600081600090555060010161139e565b5090565b90565b6000813590506113cc81611c0a565b92915050565b6000813590506113e181611c21565b92915050565b6000815190506113f681611c21565b92915050565b600082601f83011261140d57600080fd5b813561142061141b82611aa5565b611a78565b9150808252602083016020830185838301111561143c57600080fd5b611447838284611b7c565b50505092915050565b60008135905061145f81611c38565b92915050565b60006020828403121561147757600080fd5b6000611485848285016113bd565b91505092915050565b600080600080608085870312156114a457600080fd5b60006114b2878288016113bd565b945050602085013567ffffffffffffffff8111156114cf57600080fd5b6114db878288016113fc565b935050604085013567ffffffffffffffff8111156114f857600080fd5b611504878288016113fc565b925050606085013567ffffffffffffffff81111561152157600080fd5b61152d878288016113fc565b91505092959194509250565b60008060008060008060c0878903121561155257600080fd5b600061156089828a016113bd565b965050602087013567ffffffffffffffff81111561157d57600080fd5b61158989828a016113fc565b955050604087013567ffffffffffffffff8111156115a657600080fd5b6115b289828a016113fc565b945050606087013567ffffffffffffffff8111156115cf57600080fd5b6115db89828a016113fc565b935050608087013567ffffffffffffffff8111156115f857600080fd5b61160489828a016113fc565b92505060a061161589828a01611450565b9150509295509295509295565b60006020828403121561163457600080fd5b6000611642848285016113d2565b91505092915050565b60006020828403121561165d57600080fd5b600061166b848285016113e7565b91505092915050565b61167d81611b2a565b82525050565b61168c81611b2a565b82525050565b6116a361169e82611b2a565b611bbe565b82525050565b6116b281611b3c565b82525050565b6116c181611b48565b82525050565b60006116d282611ad1565b6116dc8185611af2565b93506116ec818560208601611b8b565b80840191505092915050565b600061170382611ae7565b61170d8185611b0e565b935061171d818560208601611b8b565b61172681611bec565b840191505092915050565b600061173c82611ae7565b6117468185611b1f565b9350611756818560208601611b8b565b80840191505092915050565b600061176d82611adc565b6117778185611afd565b9350611787818560208601611b8b565b61179081611bec565b840191505092915050565b60006101008301600083015184820360008601526117b98282611762565b915050602083015184820360208601526117d38282611762565b91505060408301516117e86040860182611674565b5060608301516117fb6060860182611860565b50608083015161180e6080860182611860565b5060a083015184820360a08601526118268282611762565b91505060c083015184820360c08601526118408282611762565b91505060e083015161185560e0860182611860565b508091505092915050565b61186981611b72565b82525050565b61187881611b72565b82525050565b61188f61188a82611b72565b611be2565b82525050565b60006118a18289611692565b6014820191506118b18288611731565b91506118bd8287611731565b91506118c98286611731565b91506118d58285611731565b91506118e1828461187e565b602082019150819050979650505050505050565b600061190182846116c7565b915081905092915050565b60006020820190506119216000830184611683565b92915050565b600060208201905061193c60008301846116a9565b92915050565b600060408201905061195760008301856116b8565b611964602083018461186f565b9392505050565b60006020820190508181036000830152611985818461179b565b905092915050565b60006020820190506119a2600083018461186f565b92915050565b60006080820190506119bd600083018761186f565b81810360208301526119cf81866116f8565b905081810360408301526119e381856116f8565b905081810360608301526119f781846116f8565b905095945050505050565b600060c082019050611a17600083018961186f565b8181036020830152611a2981886116f8565b90508181036040830152611a3d81876116f8565b90508181036060830152611a5181866116f8565b9050611a60608083018561186f565b611a6d60a08301846116b8565b979650505050505050565b6000604051905081810181811067ffffffffffffffff82111715611a9b57600080fd5b8060405250919050565b600067ffffffffffffffff821115611abc57600080fd5b601f19601f8301169050602081019050919050565b600081519050919050565b600081519050919050565b600081519050919050565b600081905092915050565b600082825260208201905092915050565b600082825260208201905092915050565b600081905092915050565b6000611b3582611b52565b9050919050565b60008115159050919050565b6000819050919050565b600073ffffffffffffffffffffffffffffffffffffffff82169050919050565b6000819050919050565b82818337600083830152505050565b60005b83811015611ba9578082015181840152602081019050611b8e565b83811115611bb8576000848401525b50505050565b6000611bc982611bd0565b9050919050565b6000611bdb82611bfd565b9050919050565b6000819050919050565b6000601f19601f8301169050919050565b60008160601b9050919050565b611c1381611b2a565b8114611c1e57600080fd5b50565b611c2a81611b48565b8114611c3557600080fd5b50565b611c4181611b72565b8114611c4c57600080fd5b5056fea365627a7a723158207ad2d9f94f30b44424f6342a33449bf44b2fcc522e630d1472cc45848fad19b36c6578706572696d656e74616cf564736f6c63430005100040",
  "source": "// SPDX-License-Identifier: GPL-3.0\r\npragma experimental ABIEncoderV2;\r\npragma solidity >=0.4.20;\r\n\r\n //import \"../TexOwner.sol\";\r\n //use buffer 1 and 3\r\n \r\n contract AdminUser{\r\n     \r\n         //add fabric treatementt denim treatment like stone washing, sand washing, enzyme wash, acid wash, sandblasting, river wash, whiskers and vintage look.\r\n        address public lastAccess;\r\n        address public owner;\r\n        uint public creationTime;\r\n        bytes32 a;\r\n        //mapping (uint=> items) itemlist;\r\n       \r\n       \r\n        mapping(address => User) private usersdetail;\r\n        address[] private userindex;\r\n        uint count = userindex.length;\r\n        mapping(address => uint8) authorizedCaller;\r\n\r\n       \r\n       \r\n        constructor() public {\r\n            owner = msg.sender;\r\n              creationTime = block.timestamp;\r\n            authorizedCaller[msg.sender] = 1;\r\n            emit AuthorizedCaller(msg.sender);\r\n         }\r\n \r\n         struct User{\r\n            string us_name;\r\n            string password;\r\n            address Createdby;\r\n            uint creationTime;\r\n            uint index;\r\n            string email;\r\n            string location;\r\n            uint role;\r\n   \r\n         }\r\n         struct Userroles{\r\n             uint us_roles;\r\n         }\r\n         \r\n         mapping(address=>uint) us_role;\r\n         mapping(bytes32 => User) idmap;\r\n         \r\n       \r\n\r\n        event OwnershipRenounced(address indexed previousOwner);\r\n        event OwnershipTransferred(address indexed previousOwner, address indexed newOwner);\r\n        event AuthorizedCaller(address caller);\r\n        event DeAuthorizedCaller(address caller);\r\n        event LogNewUser   (address indexed _userAddress, uint index,string  name, string password,  string email, uint userrole, bytes32 _hash);\r\n        event LogUpdateUser(address indexed _userAddress, uint index,  string email, string location, string password);\r\n        event ProduceByFarmer(uint upc);         //1\r\n\r\n       \r\n        modifier onlyAuthCaller(){\r\n            lastAccess = msg.sender;\r\n            require(authorizedCaller[msg.sender] == 1);\r\n            _;\r\n        }\r\n       \r\n        modifier Onlyowner(){\r\n            require( msg.sender==owner);\r\n            _;\r\n        }\r\n       \r\n       \r\n        function renounceOwnership() public {\r\n            emit OwnershipRenounced(owner);\r\n            owner = address(0);\r\n        }\r\n       \r\n         function isOwner() public view returns (bool) {\r\n            return msg.sender == owner;\r\n        }\r\n         function isUser(address _userAddress)public view  returns(bool isIndeed) {\r\n            if(userindex.length == 0) return false;\r\n            return (userindex[usersdetail[_userAddress].index] == _userAddress);\r\n      }\r\n         \r\n         function authorizeCaller(address _caller) public Onlyowner returns(bool)\r\n        {\r\n            authorizedCaller[_caller] = 1;\r\n            emit AuthorizedCaller(_caller);\r\n            return true;\r\n        }\r\n       function rolesmapping(address role) public view returns(uint){\r\n           return(us_role[role]);\r\n       }\r\n        /* deauthorize caller */\r\n        function deAuthorizeCaller(address _caller) public Onlyowner returns(bool)\r\n        {\r\n            authorizedCaller[_caller] = 0;\r\n            emit DeAuthorizedCaller(_caller);\r\n            return true;\r\n        }\r\n       \r\n     \r\n        function setUser(address _userAddress, string memory us_name, string memory password, string memory  email, string memory location,uint   role) public  returns(bytes32 _a,uint index) {\r\n            //require(authorizedCaller[msg.sender]==1);\r\n            //authorizedCaller[msg.sender] = 0;\r\n            //require(authorizedCaller[msg.sender]==0);\r\n           \r\n            require(isUser(_userAddress)==false);\r\n           \r\n            usersdetail[_userAddress].Createdby = msg.sender;\r\n            usersdetail[_userAddress].creationTime= block.timestamp;\r\n            usersdetail[_userAddress].us_name=us_name;\r\n            usersdetail[_userAddress].password=password;\r\n            usersdetail[_userAddress].email=email;\r\n            usersdetail[_userAddress].location=location;\r\n            usersdetail[_userAddress].role=role;\r\n            us_role[_userAddress]= role;\r\n           \r\n            userindex.push(_userAddress);\r\n            usersdetail[_userAddress].index = userindex.length-1;\r\n            a= sha256(abi.encodePacked(_userAddress,us_name,location,password,email,role));\r\n            idmap[a]=usersdetail[_userAddress];\r\n           \r\n           emit  LogNewUser(\r\n            _userAddress,\r\n            usersdetail[_userAddress].index,\r\n            us_name,\r\n            password,\r\n            email,\r\n            us_role[_userAddress],\r\n            a\r\n            );\r\n           \r\n             return (a,userindex.length-1);\r\n        }\r\n        //  function getUserCount() public view returns(uint index) {\r\n        //     return userindex.length;\r\n        //     }\r\n           \r\n           \r\n        //  function getUser(address _userAddress) public  returns ( bytes32  a,\r\n        //                                                             string memory us_name,\r\n        //                                                               string memory password,\r\n        //                                                               string memory  email,\r\n        //                                                               address _Createdby,\r\n        //                                                               uint  role)\r\n        //     {\r\n        //         require(isUser(_userAddress)==true);\r\n               \r\n        //         User memory details = usersdetail[_userAddress];\r\n               \r\n        //         a= sha256(abi.encodePacked(details.us_name, details.password,details.email, details.Createdby,details.creationTime));\r\n                 \r\n        //         idmap[a]=usersdetail[_userAddress];\r\n        //         return (a,details.us_name, details.password,details.email,details.Createdby,us_role[_userAddress]);\r\n        //     }  \r\n           \r\n        function getdata(bytes32 transactionhash) public view returns(User memory used){\r\n             return (idmap[transactionhash]);\r\n           \r\n        }\r\n        function updateUser(address _userAddress, string memory email, string memory location, string memory password) public returns(bool success) {\r\n           \r\n            require(isUser(_userAddress)==true) ;\r\n            usersdetail[_userAddress].email = email;\r\n            usersdetail[_userAddress].location = location;\r\n            usersdetail[_userAddress].password = password;\r\n            emit LogUpdateUser(\r\n            _userAddress,\r\n            usersdetail[_userAddress].index,\r\n            email,\r\n            location,\r\n            password\r\n            );\r\n            return true;\r\n        }  \r\n \r\n     \r\n }\r\n    // library Roles {\r\n    //   struct Role {\r\n    //     mapping (address => bool) bearer;\r\n    //   }\r\n   \r\n    //   /**\r\n      //  * @dev give an account access to this role\r\n    //    */\r\n    //   function add(Role storage role, address _userAddress) internal {\r\n    //     require(_userAddress != address(0));\r\n    //     require(!has(role, _userAddress));\r\n   \r\n    //     role.bearer[_userAddress] = true;\r\n    //   }\r\n   \r\n    //   /**\r\n    //    * @dev remove an account's access to this role\r\n    //    */\r\n    //   function remove(Role storage role, address _userAddress) internal {\r\n    //     require(_userAddress != address(0));\r\n    //     require(has(role, _userAddress));\r\n   \r\n    //     role.bearer[_userAddress] = false;\r\n    //   }\r\n   \r\n    //   /**\r\n    //    * @dev check if an account has this role\r\n    //    * @return bool\r\n    //    */\r\n    //   function has(Role storage role, address _userAddress)\r\n    //     internal\r\n    //     view\r\n    //     returns (bool)\r\n    //   {\r\n    //     require(_userAddress != address(0));\r\n    //     return role.bearer[_userAddress];\r\n    //   }\r\n    // }\r\n     \r\n     \r\n//  contract Supplier{\r\n     \r\n//       using Roles for Roles.Role;\r\n//     uint public creationTime;\r\n//       // Define 2 events, one for Adding, and other for Removing\r\n//       event SupplierAdded(address indexed account);\r\n//       event SupplierRemoved(address indexed account);\r\n   \r\n//       // Define a struct 'farmers' by inheriting from 'Roles' library, struct Role\r\n//       Roles.Role private suppliers;\r\n   \r\n//       // In the constructor make the address that deploys this contract the 1st farmer\r\n//       constructor() public {\r\n//         _addSupplier(msg.sender);\r\n//         creationTime = block.timestamp;\r\n   \r\n//       }\r\n   \r\n//       // Define a modifier that checks to see if msg.sender has the appropriate role\r\n//       modifier onlySupplier() {\r\n//         require(isSupplier(msg.sender));\r\n//         _;\r\n//       }\r\n   \r\n//       // Define a function 'isFarmer' to check this role\r\n//       function isSupplier(address _userAddress) public view returns (bool) {\r\n//         return suppliers.has(_userAddress);\r\n//       }\r\n   \r\n//       // Define a function 'addFarmer' that adds this role\r\n//       function addSupplier(address _userAddress) public onlySupplier {\r\n//         _addSupplier(_userAddress);\r\n//       }\r\n   \r\n//       // Define a function 'renounceFarmer' to renounce this role\r\n//       function renounceSupplier() public {\r\n//         _removeSupplier(msg.sender);\r\n//       }\r\n   \r\n//       // Define an internal function '_addFarmer' to add this role, called by 'addFarmer'\r\n//       function _addSupplier(address _userAddress) internal {\r\n//         suppliers.add(_userAddress);\r\n//         emit SupplierAdded(_userAddress);\r\n//       }\r\n   \r\n//       // Define an internal function '_removeFarmer' to remove this role, called by 'removeFarmer'\r\n//       function _removeSupplier(address _userAddress) internal {\r\n//         suppliers.remove(_userAddress);\r\n//         emit SupplierRemoved(_userAddress);\r\n//       }\r\n\r\n//  }\r\n//          contract Manufacturer {\r\n             \r\n             \r\n//           using Roles for Roles.Role;\r\n         \r\n//           // Define 2 events, one for Adding, and other for Removing\r\n//           event ManufacturerAdded(address indexed _userAddress);\r\n//           event ManufacturerRemoved(address indexed _userAddress);\r\n//           address manuowner;\r\n//           bytes32 hash;\r\n         \r\n         \r\n//           // Define a struct 'distributors' by inheriting from 'Roles' library, struct Role\r\n//           Roles.Role private distributors;\r\n//         event LogNewUser   (address indexed _userAddress, uint index);\r\n\r\n//           address[] private userindex;\r\n   \r\n//           // In the constructor make the address that deploys this contract the 1st distributor\r\n//           constructor() public {\r\n//               manuowner =msg.sender;\r\n//             _addDistributor(msg.sender);\r\n//           }\r\n//         modifier onlyManufacturer(){\r\n//             require(msg.sender == manuowner);\r\n//             _;\r\n//         }\r\n//           // Define a modifier that checks to see if msg.sender has the appropriate role\r\n//           modifier onlyDistributor() {\r\n//             require(isDistributor(msg.sender));\r\n           \r\n//             _;\r\n           \r\n           \r\n//           }\r\n       \r\n//           // Define a function 'isDistributor' to check this role\r\n//           function isDistributor(address account) public view returns (bool) {\r\n             \r\n//             return distributors.has(account);\r\n//           }\r\n  \r\n       \r\n//     // Define a function 'addDistributor' that adds this role\r\n//           function addDistributor(address account) public onlyDistributor {\r\n//             _addDistributor(account);\r\n//           }\r\n       \r\n//           // Define a function 'renounceDistributor' to renounce this role\r\n//           function renounceDistributor() public {\r\n//             _removeDistributor(msg.sender);\r\n//           }\r\n       \r\n//           // Define an internal function '_addDistributor' to add this role, called by 'addDistributor'\r\n//           function _addDistributor(address account) internal {\r\n//             distributors.add(account);\r\n//             emit ManufacturerAdded(account);\r\n//           }\r\n       \r\n//           // Define an internal function '_removeDistributor' to remove this role, called by 'removeDistributor'\r\n//           function _removeDistributor(address account) internal {\r\n//             distributors.remove(account);\r\n//             emit ManufacturerRemoved(account);\r\n//           }\r\n//         }\r\n//    contract Brand {\r\n//       using Roles for Roles.Role;\r\n//       // Define 2 events, one for Adding, and other for Removing\r\n//       event ConsumerAdded(address indexed account);\r\n//       event ConsumerRemoved(address indexed account);\r\n   \r\n//       // Define a struct 'consumers' by inheriting from 'Roles' library, struct Role\r\n//       Roles.Role private consumers;\r\n//       // In the constructor make the address that deploys this contract the 1st consumer\r\n//       constructor() public {\r\n//         //_addConstructor(msg.sender);\r\n//         _addConsumer(msg.sender);\r\n//       }\r\n   \r\n//       // Define a modifier that checks to see if msg.sender has the appropriate role\r\n//       modifier onlyBrand() {\r\n//         require(isBrand(msg.sender));\r\n//         _;\r\n//       }\r\n   \r\n//       // Define a function 'isConsumer' to check this role\r\n//       function isBrand(address account) public view returns (bool) {\r\n//         return consumers.has(account);\r\n//       }\r\n   \r\n//       // Define a function 'addConsumer' that adds this role\r\n//       function addBrand(address account) public onlyBrand {\r\n//         _addConsumer(account);\r\n//       }\r\n   \r\n//       // Define a function 'renounceConsumer' to renounce this role\r\n//       function renounceConsumer(address account) public {\r\n//         _removeConsumer(account);\r\n//       }\r\n   \r\n//       // Define an internal function '_addConsumer' to add this role, called by 'addConsumer'\r\n//       function _addConsumer(address account) internal {\r\n//         consumers.add(account);\r\n//         emit ConsumerAdded(account);\r\n//       }\r\n   \r\n//       // Define an internal function '_removeConsumer' to remove this role, called by 'removeConsumer'\r\n//       function _removeConsumer(address account) internal {\r\n//         consumers.remove(account);\r\n//         emit ConsumerRemoved(account);\r\n//       }\r\n// }      \r\n  contract Supplychain{\r\n     \r\n     \r\n           \r\n          // Define a variable called 'upc' for Universal Product Code (UPC),12 digit codes.\r\n        string  upc;\r\n        string productupc;\r\n        uint productsku;\r\n       \r\n        // Define a variable called 'sku' for Stock Keeping Unit (SKU),string of alpha and numeric,unique to the companies ,8 digit\r\n        uint  sku;\r\n        uint placeholder; // Block number place holder\r\n        address owner;\r\n        // Define a public mapping 'items' that maps the UPC to an Item.\r\n        mapping (string => Item)  items;\r\n        mapping (string => Denim) products;\r\n        mapping (uint256 =>Denim[])  public idToProof;\r\n       \r\n         // Define a public mapping 'itemsHistory' that maps the UPC to an array of TxHash,\r\n        // that track its journey through the supply chain -- to be sent from DApp.\r\n        mapping (string => Txblocks) itemsHistory;\r\n        mapping (string=>address[]) public merhmap;\r\n        //mapping()\r\n        mapping(address=>mapping(address=>uint)) public mechsupquantity;\r\n        // Define enum 'State' with the following values:\r\n        enum State\r\n        {\r\n            ProduceBySupplier,         // 0\r\n            ForSaleBySupplier,         // 1\r\n            PurchasedByManufacturer,  // 2\r\n            ShippedBySupplier,         // 3\r\n            ReceivedByManufacturer,   // 4\r\n            ProcessedByManufacturer,  // 5\r\n            PackagedByManufacturer,    // 6\r\n            ForSaleByManufacturer,    // 7\r\n            PurchasedByBrand,         // 8\r\n            ShippedByManufacturer,    // 9\r\n            ReceivedByBrand// 10\r\n        }\r\n       \r\n        struct Item {\r\n            uint    sku;                    // Stock Keeping Unit (SKU)\r\n            string    upc;                    // Universal Product Code (UPC), generated by the Farmer, goes on the package, can be verified by the Consumer\r\n            uint creationTime;\r\n            address ownerID;                // Metamask-Ethereum address of the current owner as the product moves through 8 stages\r\n            address originsupplierID;         // Metamask-Ethereum address of the Farmer // ADDED PAYABLE\r\n            string  originsupplierName;         // Farmer Name\r\n            string  originsupplierLatitude;     // Farm Latitude\r\n            string  originsupplierLongitude;    // Farm Longitude\r\n            uint    productPrice;           // Product Price\r\n            uint quantity;\r\n            string materialtype;\r\n            State   itemState;// Product State as represented in the enum above\r\n            string merchandizerid;\r\n            address manufacturerID;          // Metamask-Ethereum address of the Distributor\r\n            address brandID;             // Metamask-Ethereum address of the Consumer // ADDED payable\r\n        }\r\n       \r\n        struct Denim {\r\n           \r\n            string treatements;\r\n            string productupc;\r\n            address ownerID;\r\n            State productstate;\r\n            uint productsku;\r\n            address brandID;\r\n            string empID;\r\n            uint256 creationTime;\r\n            address manufacturerID;\r\n            string merchandizerid;\r\n            \r\n            string  machine_id;\r\n            string itemsUPC;\r\n\r\n        }\r\n\r\n       \r\n        struct Txblocks {\r\n            uint FTD; // blockfarmerToDistributor\r\n            uint RTC; // blockRetailerToConsumer\r\n            uint PM;//blockpurchsetoprocess\r\n            uint PPA;//blockprocesstopacakge\r\n          }\r\n         \r\n        State constant defaultState = State.ProduceBySupplier;\r\n        event LogProductDetails(string _upc, string _machineid, string _employeeid);\r\n        event logNewItem   (string _upc,string upc,uint sku, address employee, string  _originsupplierName, string  _originsupplierLatitude, string  _originsupplierLongitude,string  _materialtype, uint _price, uint  _quantity, uint256 hash );\r\n        event lognewPurchse   (string _upc,uint time,   string _merch,uint _quantity, address originsupplierID, uint256 FTD);\r\n        event QuantityLesserThanRequired(uint upc);\r\n        event ProduceBySupplier(string upc);         //1\r\n        event ForSaleBySupplier(string upc); //2\r\n        event PurchasedByManufacturer(string upc);  //3\r\n        event ShippedBySupplier(string upc);         //4\r\n        event ReceivedByManufacturer(string upc);   //5\r\n        event ProcessedByManufacturer(string upc);  //6\r\n        event PackagedByManufacturer(string upc);   //7\r\n        event ForSaleByManufacturer(string upc);    //8\r\n        event PurchasedByBrand(string upc);     //13\r\n        event ShippedByManufacturer(string upc);    //10\r\n        event ReceivedByBrand(string upc);     //13\r\n       \r\n        // modifier forSaleBySupplier(string _upc) {\r\n        // require(items[_upc].itemState == State.ForSaleBySupplier);\r\n        // _;\r\n        // }\r\n        // modifier producedBySupplier(string _upc) {\r\n        // require(items[_upc].itemState == State.ProduceBySupplier);\r\n        // _;\r\n        // }\r\n        modifier verifyCaller (address _userAddress) {\r\n        require(msg.sender == _userAddress);\r\n        _;\r\n        }\r\n        // modifier purchasedByManufacturer(string _upc) {\r\n        // require(items[_upc].itemState == State.PurchasedByManufacturer);\r\n        // _;\r\n        // }\r\n       \r\n        // modifier shippedBySupplier(string _upc) {\r\n        // require(items[_upc].itemState == State.ShippedBySupplier);\r\n        // _;\r\n        // }\r\n       \r\n        // modifier receivedByManufacturer(string _upc) {\r\n        // require(items[_upc].itemState == State.ReceivedByManufacturer);\r\n        // _;\r\n        // }\r\n       \r\n//         modifier processByManufacturer(string _upc) {\r\n//         require(products[_upc].productstate == State.ProcessedByManufacturer);\r\n//         _;\r\n//         }\r\n       \r\n//         modifier packagedByManufacturer(string _upc) {\r\n//         require(products[_upc].productstate == State.PackagedByManufacturer);\r\n//         _;\r\n//         }\r\n//         modifier forSaleByManufacturer(string _upc) {\r\n//         require(products[_upc].productstate  == State.ForSaleByManufacturer);\r\n//         _;\r\n//   }\r\n\r\n\r\n//         modifier shippedByManufacturer(string _upc) {\r\n//         require(products[_upc].productstate  == State.ShippedByManufacturer);\r\n//         _;\r\n//         }\r\n       \r\n       \r\n//         modifier purchasedByBrand(string _upc) {\r\n//         require(products[_upc].productstate  == State.PurchasedByBrand);\r\n//         _;\r\n//         }\r\n         \r\n\r\n       \r\n        constructor () public  {\r\n            owner=msg.sender;\r\n            sku = 1;\r\n            productsku=1;\r\n            // Manufacturer manufacturer= new Manufacturer();\r\n            // Supplier supplier= new Supplier();\r\n            // Brand brand= new Brand();\r\n        }\r\n                   // allows you to convert an address into a payable address\r\n         \r\n        function itemBySupplier(string memory _upc, string memory _originsupplierName, string memory _originsupplierLatitude, string memory _originsupplierLongitude,string memory _materialtype, uint _price, uint  _quantity) public\r\n        // check address belongs to farmerRole\r\n        {\r\n       \r\n        // address manufacturerID; // Empty distributorID address\r\n        // address brandID; // Empty consumerID address\r\n       \r\n        // Item memory newProduce; // Create a new struct Item in memory\r\n        // newProduce.sku = sku;  // Stock Keeping Unit (SKU)\r\n        // newProduce.upc = _upc; // Universal Product Code (UPC), generated by the Farmer, goes on the package, can be verified by the Consumer\r\n        // newProduce.ownerID = msg.sender;  // Metamask-Ethereum address of the current owner as the product moves through 8 stages\r\n        // newProduce.originsupplierID = msg.sender; // Metamask-Ethereum address of the Farmer\r\n        // newProduce.originsupplierName = _originsupplierName;  // Farmer Name\r\n        // newProduce.originsupplierLatitude = _originsupplierLatitude; // Farm Latitude\r\n        // newProduce.originsupplierLongitude = _originsupplierLongitude;  // Farm Longitude\r\n        // newProduce.productPrice = _price;  // Product Price\r\n        // newProduce.creationTime = now;\r\n        // newProduce.quantity = _quantity;\r\n        // newProduce.itemState = defaultState; // Product State as represented in the enum above\r\n       \r\n        // newProduce.manufacturerID = manufacturerID; // Metamask-Ethereum address of the Distributor\r\n        // newProduce.brandID = brandID; // Metamask-Ethereum address of the Consumer // ADDED payable\r\n        items[_upc] = Item(sku,_upc,block.timestamp,msg.sender,msg.sender,_originsupplierName, _originsupplierLatitude ,_originsupplierLongitude,_price,_quantity,_materialtype,defaultState,'',address(0),address(0));\r\n\r\n        //items[_upc] = newProduce; // Add newProduce to items struct by upc\r\n         Txblocks memory txBlock; // create new txBlock struct\r\n        txBlock.FTD = placeholder; // assign placeholder values\r\n        txBlock.RTC = placeholder;\r\n        itemsHistory[_upc] = txBlock; // add txBlock to itemsHistory mapping by upc\r\n       \r\n\r\n        // Increment sku\r\n        sku = sku + 1;\r\n           emit logNewItem   ( _upc,'null', sku,msg.sender,_originsupplierName,   _originsupplierLatitude,  _originsupplierLongitude,  _materialtype, _price,  _quantity,0);\r\n       \r\n        // Emit the appropriate event\r\n        emit ProduceBySupplier(_upc);\r\n        // emit ForSaleBySupplier(_upc);\r\n       \r\n       \r\n        }\r\n      function orderByManufacturer(string memory desc) public view returns(address orderBy,string memory description){\r\n            return (msg.sender , desc);\r\n      }\r\n      function orderByBrand(string memory desc) public view returns(address orderBy,string memory description){\r\n            return (msg.sender , desc);\r\n      }\r\n     \r\n    //   function sellItemBySupplier(string memory _upc) public\r\n    //   // check msg.sender belongs to farmerRole\r\n    //     producedBySupplier(_upc) // check items state has been produced\r\n    //     verifyCaller(items[_upc].ownerID) // check msg.sender is owner\r\n    //     {\r\n    //     items[_upc].itemState = State.ForSaleBySupplier;\r\n    //     emit ForSaleBySupplier(_upc);\r\n    //     }\r\n       \r\n        function purchaseItemByManufacturer(string memory _upc, uint quantity, string memory _merchandizerId) public  \r\n         //producedBySupplier(_upc) // check items state has been produced\r\n        //verifyCaller(items[_upc].ownerID) // check msg.sender is owner// check msg.sender belongs to distributorRole\r\n        //forSaleBySupplier(_upc) // check items state is for ForSaleByFarmer\r\n        {\r\n        // transfer funds from distributor to farmer\r\n        items[_upc].ownerID = msg.sender; // update owner\r\n        items[_upc].manufacturerID = msg.sender; // update distributor\r\n       \r\n        items[_upc].itemState = State.PurchasedByManufacturer; // update state\r\n        items[_upc].merchandizerid=_merchandizerId;\r\n        //items[_upc].itemState = State.ReceivedByManufacturer; // update state\r\n       //mechsupquantity[_merchandizerId][items[_upc].originsupplierID]=quantity;\r\n       merhmap[_merchandizerId].push(items[_upc].originsupplierID);\r\n        itemsHistory[_upc].FTD = block.number; // add block number\r\n      //emit ForSaleBySupplier(_upc);\r\n        emit lognewPurchse   (_upc,block.timestamp,_merchandizerId, quantity,items[_upc].originsupplierID,itemsHistory[_upc].FTD);\r\n       \r\n        emit PurchasedByManufacturer(_upc);\r\n       \r\n       \r\n        //0xAb8483F64d9C6d1EcF9b849Ae677dD3315835cb2\r\n        //0x4B20993Bc481177ec7E8f571ceCaE8A9e22C02db\r\n        //0x78731D3Ca6b7E34aC0F824c42a7cC18A495cabaB\r\n        //0x617F2E2fD72FD9D5503197092aC168c91465E7f2\r\n        }\r\n        // function productMappings(string memory _productupc) public view returns(){\r\n        //     return()\r\n        // }\r\n        function shippedItemBySupplier(string memory _upc) public\r\n         // check msg.sender belongs to FarmerRole\r\n        //purchasedByManufacturer(_upc)\r\n        verifyCaller(items[_upc].originsupplierID) // check msg.sender is originFarmID\r\n        {\r\n         \r\n        items[_upc].itemState = State.ShippedBySupplier; // update state\r\n        emit ShippedBySupplier(_upc);\r\n        }\r\n       \r\n//         function receivedItemByManufacturer(string memory _upc, uint quantity, address _merchandizerId) public\r\n//          // check msg.sender belongs to DistributorRole\r\n//         //shippedBySupplier(_upc)\r\n//         verifyCaller(items[_upc].ownerID) // check msg.sender is owner\r\n//         {\r\n           \r\n//         items[_upc].itemState = State.ReceivedByManufacturer; // update state\r\n//       mechsupquantity[_merchandizerId][items[_upc].originsupplierID]=quantity;\r\n// merhmap[_merchandizerId].push(items[_upc].originsupplierID);\r\n       \r\n//         emit lognewPurchse(_upc,block.timestamp,_merchandizerId,0,0,0);\r\n//         emit ReceivedByManufacturer(_upc);\r\n//         }\r\n       \r\n       \r\n        function processedItemByManufacturer(string memory _upc,string memory  _machine, string memory _productupc, string memory _merchandizerId,string memory _treatements , string memory _empaddress) public\r\n         // check msg.sender belongs to DistributorRole\r\n        //receivedByManufacturer(_upc)\r\n        //verifyCaller(items[_upc].ownerID) // check msg.sender is owner\r\n        {\r\n           \r\n        address brandID;\r\n        products[_productupc] = Denim(_treatements,_productupc,msg.sender,State.ProcessedByManufacturer,productsku,brandID, _empaddress ,block.timestamp,msg.sender,_merchandizerId,_machine,_upc);\r\n        uint256 batchno= uint256(keccak256(abi.encodePacked(msg.sender, block.timestamp)));\r\n       \r\n        idToProof[batchno].push(products[_productupc]);\r\n\r\n       \r\n        itemsHistory[_productupc].PM = block.number; // add block number\r\n        products[_productupc].productstate= State.ProcessedByManufacturer;\r\n        productsku = productsku + 1;\r\n        emit logNewItem   ( _productupc,'',productsku,msg.sender,  _treatements,'null','null','null',0,0,batchno);\r\n        emit LogProductDetails(products[_productupc].itemsUPC,products[_productupc].machine_id, products[_productupc].empID);\r\n        emit ProcessedByManufacturer(_productupc);\r\n        }\r\n       \r\n   \r\n        function packageItemByDistributor(string memory _productupc) public\r\n         // check msg.sender belongs to DistributorRole\r\n        //processByManufacturer(_productupc)\r\n        //verifyCaller(products[_productupc].ownerID) // check msg.sender is owner\r\n        {\r\n       \r\n        products[_productupc].productstate= State.PackagedByManufacturer;\r\n        //itemsHistory[_productupc].PPA = block.number; // add block number\r\n        emit PackagedByManufacturer(_productupc);\r\n        }\r\n       \r\n        // function sellItemByManufacturer(string memory _productupc) public\r\n        //  // check msg.sender belongs to DistributorRole\r\n        // //packagedByManufacturer(_productupc)\r\n        // //verifyCaller(products[_productupc].manufacturerID) // check msg.sender is owner\r\n        // {\r\n       \r\n       \r\n        // emit logNewItem(_productupc,'null',0,address(0),\"null\",\"null\",'null','null',0,0,0);\r\n        // emit ForSaleByManufacturer(_productupc);\r\n        // }\r\n        function purchaseItemByBrand(string memory _productupc) public\r\n        // check msg.sender belongs to ConsumerRole\r\n        //forSaleByManufacturer(_productupc)\r\n        {\r\n        products[_productupc].brandID = msg.sender;\r\n        //items[_upc].brandID=msg.sender;\r\n        products[_productupc].ownerID = msg.sender;\r\n        products[_productupc].productstate= State.ForSaleByManufacturer;\r\n        products[_productupc].productstate = State.PurchasedByBrand;\r\n                //idToProof[_batchno].push(  products[_productupc]);\r\n\r\n        itemsHistory[_productupc].RTC = block.number;\r\n        emit lognewPurchse(_productupc,block.timestamp,'',0,products[_productupc].brandID,0);\r\n        emit PurchasedByBrand(_productupc);\r\n        }\r\n        function shippedItemByDistributor(string memory _productupc ,uint _shipmentAgent) public\r\n         // check msg.sender belongs to DistributorRole\r\n        //purchasedByBrand(_productupc)\r\n        verifyCaller(products[_productupc].manufacturerID) // check msg.sender is distributorID\r\n        {\r\n            //products[_productupc].ShipmnetAgent=_shipmentAgent;\r\n        products[_productupc].productstate = State.ShippedByManufacturer;\r\n        emit lognewPurchse(_productupc,block.timestamp,'',_shipmentAgent,address(0),0);\r\n        emit ShippedByManufacturer(_productupc);\r\n        }\r\n       \r\n        function fetchItemBufferOne(string memory _upc) public view returns\r\n        (\r\n        uint    itemSKU,\r\n        string  memory  itemUPC,\r\n        address ownerID,\r\n        address originSupplierID,\r\n        string memory  originSupplierName,\r\n        string memory originSupplierLatitude,\r\n        string memory originSupplierLongitude,\r\n        uint price,\r\n        uint creationtime\r\n        )\r\n        {\r\n        // Assign values to the 8 parameters\r\n        Item memory item = items[_upc];\r\n   \r\n        return (item.sku,\r\n          item.upc,\r\n          item.ownerID,\r\n         item.originsupplierID,\r\n          item.originsupplierName,\r\n          item.originsupplierLongitude,\r\n          item.originsupplierLatitude,\r\n          item.productPrice,\r\n          item.creationTime\r\n        );\r\n  }\r\n      function fetchItemBufferTwo(string memory _upc) public view returns\r\n        (\r\n        uint    itemSKU,\r\n        string memory   itemUPC,\r\n        string memory materialtype,\r\n        State   itemState,\r\n        address manufacturerID,\r\n        address brandID,\r\n        string memory merchandizerid\r\n        )\r\n        {\r\n          // Assign values to the 9 parameters\r\n        Item memory item = items[_upc];\r\n        return\r\n        (\r\n          item.sku,\r\n          item.upc,\r\n          item.materialtype,\r\n          item.itemState,\r\n          item.manufacturerID,\r\n          item.brandID,\r\n          item.merchandizerid\r\n        );\r\n\r\n  }\r\n   function fetchItemBufferThree(string memory _productupc) public view returns\r\n        (\r\n        uint    itemSKU,\r\n        string memory  itemUPC,\r\n        address manufacturerID,\r\n        address brandID,\r\n        string memory merchandizerid,\r\n        string memory treatement,\r\n        State   itemState,\r\n        string memory  empID,\r\n        string memory machine_id,\r\n        uint time\r\n        )\r\n        {\r\n          // Assign values to the 9 parameters\r\n        Denim memory product = products[_productupc];\r\n        return\r\n        (\r\n          product.productsku,\r\n          product.itemsUPC,\r\n          product.manufacturerID,\r\n          product.brandID,\r\n          product.merchandizerid,\r\n          product.treatements,\r\n          product.productstate,\r\n          product.empID,\r\n          product.machine_id,\r\n          product.creationTime\r\n         \r\n   \r\n        );\r\n\r\n  }\r\n    function fetchitemHistory(string memory _upc, string memory _productupc) public view returns\r\n        (\r\n          uint blockSupplierToDistributor,\r\n          uint blockManufacturerToBrand,\r\n          uint blockpurchsetoprocess,\r\n          uint blockprocesstopacakge\r\n        )\r\n        {\r\n          // Assign value to the parameters\r\n          Txblocks memory txblock = itemsHistory[_upc];\r\n          return\r\n          (\r\n            txblock.FTD,\r\n            itemsHistory[_productupc].RTC,\r\n            itemsHistory[_productupc].PM,\r\n            itemsHistory[_productupc].PPA\r\n   \r\n          );\r\n   \r\n        }\r\n\r\n\r\n\r\n   } \r\n",
  "sourcePath": "E:/nodeweb3/ethereuem/contracts/exmaple.sol",
  "compiler": {
    "name": "solc",
    "version": "0.5.16+commit.9c3226ce.Emscripten.clang"
  },
  "schemaVersion": "3.3.2",
  "updatedAt": "2021-05-24T12:54:53.451Z",
  "networkType": "ethereum",
  "devdoc": {
    "methods": {}
  },
  "userdoc": {
    "methods": {}
  }
}