{
  "contractName": "Supplychain",
  "abi": [
    {
      "inputs": [],
      "payable": false,
      "stateMutability": "nonpayable",
      "type": "constructor"
    },
    {
      "anonymous": false,
      "inputs": [
        {
          "indexed": false,
          "internalType": "string",
          "name": "upc",
          "type": "string"
        }
      ],
      "name": "ForSaleByManufacturer",
      "type": "event"
    },
    {
      "anonymous": false,
      "inputs": [
        {
          "indexed": false,
          "internalType": "string",
          "name": "upc",
          "type": "string"
        }
      ],
      "name": "ForSaleBySupplier",
      "type": "event"
    },
    {
      "anonymous": false,
      "inputs": [
        {
          "indexed": false,
          "internalType": "string",
          "name": "_upc",
          "type": "string"
        },
        {
          "indexed": false,
          "internalType": "string",
          "name": "_machineid",
          "type": "string"
        },
        {
          "indexed": false,
          "internalType": "string",
          "name": "_employeeid",
          "type": "string"
        }
      ],
      "name": "LogProductDetails",
      "type": "event"
    },
    {
      "anonymous": false,
      "inputs": [
        {
          "indexed": false,
          "internalType": "string",
          "name": "upc",
          "type": "string"
        }
      ],
      "name": "PackagedByManufacturer",
      "type": "event"
    },
    {
      "anonymous": false,
      "inputs": [
        {
          "indexed": false,
          "internalType": "string",
          "name": "upc",
          "type": "string"
        }
      ],
      "name": "ProcessedByManufacturer",
      "type": "event"
    },
    {
      "anonymous": false,
      "inputs": [
        {
          "indexed": false,
          "internalType": "string",
          "name": "upc",
          "type": "string"
        }
      ],
      "name": "ProduceBySupplier",
      "type": "event"
    },
    {
      "anonymous": false,
      "inputs": [
        {
          "indexed": false,
          "internalType": "string",
          "name": "upc",
          "type": "string"
        }
      ],
      "name": "PurchasedByBrand",
      "type": "event"
    },
    {
      "anonymous": false,
      "inputs": [
        {
          "indexed": false,
          "internalType": "string",
          "name": "upc",
          "type": "string"
        }
      ],
      "name": "PurchasedByManufacturer",
      "type": "event"
    },
    {
      "anonymous": false,
      "inputs": [
        {
          "indexed": false,
          "internalType": "uint256",
          "name": "upc",
          "type": "uint256"
        }
      ],
      "name": "QuantityLesserThanRequired",
      "type": "event"
    },
    {
      "anonymous": false,
      "inputs": [
        {
          "indexed": false,
          "internalType": "string",
          "name": "upc",
          "type": "string"
        }
      ],
      "name": "ReceivedByBrand",
      "type": "event"
    },
    {
      "anonymous": false,
      "inputs": [
        {
          "indexed": false,
          "internalType": "string",
          "name": "upc",
          "type": "string"
        }
      ],
      "name": "ReceivedByManufacturer",
      "type": "event"
    },
    {
      "anonymous": false,
      "inputs": [
        {
          "indexed": false,
          "internalType": "string",
          "name": "upc",
          "type": "string"
        }
      ],
      "name": "ShippedByManufacturer",
      "type": "event"
    },
    {
      "anonymous": false,
      "inputs": [
        {
          "indexed": false,
          "internalType": "string",
          "name": "upc",
          "type": "string"
        }
      ],
      "name": "ShippedBySupplier",
      "type": "event"
    },
    {
      "anonymous": false,
      "inputs": [
        {
          "indexed": false,
          "internalType": "string",
          "name": "_upc",
          "type": "string"
        },
        {
          "indexed": false,
          "internalType": "string",
          "name": "upc",
          "type": "string"
        },
        {
          "indexed": false,
          "internalType": "uint256",
          "name": "sku",
          "type": "uint256"
        },
        {
          "indexed": false,
          "internalType": "address",
          "name": "employee",
          "type": "address"
        },
        {
          "indexed": false,
          "internalType": "string",
          "name": "_originsupplierName",
          "type": "string"
        },
        {
          "indexed": false,
          "internalType": "string",
          "name": "_originsupplierLatitude",
          "type": "string"
        },
        {
          "indexed": false,
          "internalType": "string",
          "name": "_originsupplierLongitude",
          "type": "string"
        },
        {
          "indexed": false,
          "internalType": "string",
          "name": "_materialtype",
          "type": "string"
        },
        {
          "indexed": false,
          "internalType": "uint256",
          "name": "_price",
          "type": "uint256"
        },
        {
          "indexed": false,
          "internalType": "uint256",
          "name": "_quantity",
          "type": "uint256"
        },
        {
          "indexed": false,
          "internalType": "uint256",
          "name": "hash",
          "type": "uint256"
        }
      ],
      "name": "logNewItem",
      "type": "event"
    },
    {
      "anonymous": false,
      "inputs": [
        {
          "indexed": false,
          "internalType": "string",
          "name": "_upc",
          "type": "string"
        },
        {
          "indexed": false,
          "internalType": "uint256",
          "name": "time",
          "type": "uint256"
        },
        {
          "indexed": false,
          "internalType": "string",
          "name": "_merch",
          "type": "string"
        },
        {
          "indexed": false,
          "internalType": "uint256",
          "name": "_quantity",
          "type": "uint256"
        },
        {
          "indexed": false,
          "internalType": "address",
          "name": "originsupplierID",
          "type": "address"
        },
        {
          "indexed": false,
          "internalType": "uint256",
          "name": "FTD",
          "type": "uint256"
        }
      ],
      "name": "lognewPurchse",
      "type": "event"
    },
    {
      "constant": true,
      "inputs": [
        {
          "internalType": "uint256",
          "name": "",
          "type": "uint256"
        },
        {
          "internalType": "uint256",
          "name": "",
          "type": "uint256"
        }
      ],
      "name": "idToProof",
      "outputs": [
        {
          "internalType": "string",
          "name": "treatements",
          "type": "string"
        },
        {
          "internalType": "string",
          "name": "productupc",
          "type": "string"
        },
        {
          "internalType": "address",
          "name": "ownerID",
          "type": "address"
        },
        {
          "internalType": "enum Supplychain.State",
          "name": "productstate",
          "type": "uint8"
        },
        {
          "internalType": "uint256",
          "name": "productsku",
          "type": "uint256"
        },
        {
          "internalType": "address",
          "name": "brandID",
          "type": "address"
        },
        {
          "internalType": "string",
          "name": "empID",
          "type": "string"
        },
        {
          "internalType": "uint256",
          "name": "creationTime",
          "type": "uint256"
        },
        {
          "internalType": "address",
          "name": "manufacturerID",
          "type": "address"
        },
        {
          "internalType": "string",
          "name": "merchandizerid",
          "type": "string"
        },
        {
          "internalType": "string",
          "name": "machine_id",
          "type": "string"
        },
        {
          "internalType": "string",
          "name": "itemsUPC",
          "type": "string"
        }
      ],
      "payable": false,
      "stateMutability": "view",
      "type": "function"
    },
    {
      "constant": true,
      "inputs": [
        {
          "internalType": "address",
          "name": "",
          "type": "address"
        },
        {
          "internalType": "address",
          "name": "",
          "type": "address"
        }
      ],
      "name": "mechsupquantity",
      "outputs": [
        {
          "internalType": "uint256",
          "name": "",
          "type": "uint256"
        }
      ],
      "payable": false,
      "stateMutability": "view",
      "type": "function"
    },
    {
      "constant": true,
      "inputs": [
        {
          "internalType": "string",
          "name": "",
          "type": "string"
        },
        {
          "internalType": "uint256",
          "name": "",
          "type": "uint256"
        }
      ],
      "name": "merhmap",
      "outputs": [
        {
          "internalType": "address",
          "name": "",
          "type": "address"
        }
      ],
      "payable": false,
      "stateMutability": "view",
      "type": "function"
    },
    {
      "constant": false,
      "inputs": [
        {
          "internalType": "string",
          "name": "_upc",
          "type": "string"
        },
        {
          "internalType": "string",
          "name": "_originsupplierName",
          "type": "string"
        },
        {
          "internalType": "string",
          "name": "_originsupplierLatitude",
          "type": "string"
        },
        {
          "internalType": "string",
          "name": "_originsupplierLongitude",
          "type": "string"
        },
        {
          "internalType": "string",
          "name": "_materialtype",
          "type": "string"
        },
        {
          "internalType": "uint256",
          "name": "_price",
          "type": "uint256"
        },
        {
          "internalType": "uint256",
          "name": "_quantity",
          "type": "uint256"
        }
      ],
      "name": "itemBySupplier",
      "outputs": [],
      "payable": false,
      "stateMutability": "nonpayable",
      "type": "function"
    },
    {
      "constant": true,
      "inputs": [
        {
          "internalType": "string",
          "name": "desc",
          "type": "string"
        }
      ],
      "name": "orderByManufacturer",
      "outputs": [
        {
          "internalType": "address",
          "name": "orderBy",
          "type": "address"
        },
        {
          "internalType": "string",
          "name": "description",
          "type": "string"
        }
      ],
      "payable": false,
      "stateMutability": "view",
      "type": "function"
    },
    {
      "constant": true,
      "inputs": [
        {
          "internalType": "string",
          "name": "desc",
          "type": "string"
        }
      ],
      "name": "orderByBrand",
      "outputs": [
        {
          "internalType": "address",
          "name": "orderBy",
          "type": "address"
        },
        {
          "internalType": "string",
          "name": "description",
          "type": "string"
        }
      ],
      "payable": false,
      "stateMutability": "view",
      "type": "function"
    },
    {
      "constant": false,
      "inputs": [
        {
          "internalType": "string",
          "name": "_upc",
          "type": "string"
        },
        {
          "internalType": "uint256",
          "name": "quantity",
          "type": "uint256"
        },
        {
          "internalType": "string",
          "name": "_merchandizerId",
          "type": "string"
        }
      ],
      "name": "purchaseItemByManufacturer",
      "outputs": [],
      "payable": false,
      "stateMutability": "nonpayable",
      "type": "function"
    },
    {
      "constant": false,
      "inputs": [
        {
          "internalType": "string",
          "name": "_upc",
          "type": "string"
        }
      ],
      "name": "shippedItemBySupplier",
      "outputs": [],
      "payable": false,
      "stateMutability": "nonpayable",
      "type": "function"
    },
    {
      "constant": false,
      "inputs": [
        {
          "internalType": "string",
          "name": "_upc",
          "type": "string"
        },
        {
          "internalType": "string",
          "name": "_machine",
          "type": "string"
        },
        {
          "internalType": "string",
          "name": "_productupc",
          "type": "string"
        },
        {
          "internalType": "string",
          "name": "_merchandizerId",
          "type": "string"
        },
        {
          "internalType": "string",
          "name": "_treatements",
          "type": "string"
        },
        {
          "internalType": "string",
          "name": "_empaddress",
          "type": "string"
        }
      ],
      "name": "processedItemByManufacturer",
      "outputs": [],
      "payable": false,
      "stateMutability": "nonpayable",
      "type": "function"
    },
    {
      "constant": false,
      "inputs": [
        {
          "internalType": "string",
          "name": "_productupc",
          "type": "string"
        }
      ],
      "name": "packageItemByDistributor",
      "outputs": [],
      "payable": false,
      "stateMutability": "nonpayable",
      "type": "function"
    },
    {
      "constant": false,
      "inputs": [
        {
          "internalType": "string",
          "name": "_productupc",
          "type": "string"
        }
      ],
      "name": "purchaseItemByBrand",
      "outputs": [],
      "payable": false,
      "stateMutability": "nonpayable",
      "type": "function"
    },
    {
      "constant": false,
      "inputs": [
        {
          "internalType": "string",
          "name": "_productupc",
          "type": "string"
        },
        {
          "internalType": "uint256",
          "name": "_shipmentAgent",
          "type": "uint256"
        }
      ],
      "name": "shippedItemByDistributor",
      "outputs": [],
      "payable": false,
      "stateMutability": "nonpayable",
      "type": "function"
    },
    {
      "constant": true,
      "inputs": [
        {
          "internalType": "string",
          "name": "_upc",
          "type": "string"
        }
      ],
      "name": "fetchItemBufferOne",
      "outputs": [
        {
          "internalType": "uint256",
          "name": "itemSKU",
          "type": "uint256"
        },
        {
          "internalType": "string",
          "name": "itemUPC",
          "type": "string"
        },
        {
          "internalType": "address",
          "name": "ownerID",
          "type": "address"
        },
        {
          "internalType": "address",
          "name": "originSupplierID",
          "type": "address"
        },
        {
          "internalType": "string",
          "name": "originSupplierName",
          "type": "string"
        },
        {
          "internalType": "string",
          "name": "originSupplierLatitude",
          "type": "string"
        },
        {
          "internalType": "string",
          "name": "originSupplierLongitude",
          "type": "string"
        },
        {
          "internalType": "uint256",
          "name": "price",
          "type": "uint256"
        },
        {
          "internalType": "uint256",
          "name": "creationtime",
          "type": "uint256"
        }
      ],
      "payable": false,
      "stateMutability": "view",
      "type": "function"
    },
    {
      "constant": true,
      "inputs": [
        {
          "internalType": "string",
          "name": "_upc",
          "type": "string"
        }
      ],
      "name": "fetchItemBufferTwo",
      "outputs": [
        {
          "internalType": "uint256",
          "name": "itemSKU",
          "type": "uint256"
        },
        {
          "internalType": "string",
          "name": "itemUPC",
          "type": "string"
        },
        {
          "internalType": "string",
          "name": "materialtype",
          "type": "string"
        },
        {
          "internalType": "enum Supplychain.State",
          "name": "itemState",
          "type": "uint8"
        },
        {
          "internalType": "address",
          "name": "manufacturerID",
          "type": "address"
        },
        {
          "internalType": "address",
          "name": "brandID",
          "type": "address"
        },
        {
          "internalType": "string",
          "name": "merchandizerid",
          "type": "string"
        }
      ],
      "payable": false,
      "stateMutability": "view",
      "type": "function"
    },
    {
      "constant": true,
      "inputs": [
        {
          "internalType": "string",
          "name": "_productupc",
          "type": "string"
        }
      ],
      "name": "fetchItemBufferThree",
      "outputs": [
        {
          "internalType": "uint256",
          "name": "itemSKU",
          "type": "uint256"
        },
        {
          "internalType": "string",
          "name": "itemUPC",
          "type": "string"
        },
        {
          "internalType": "address",
          "name": "manufacturerID",
          "type": "address"
        },
        {
          "internalType": "address",
          "name": "brandID",
          "type": "address"
        },
        {
          "internalType": "string",
          "name": "merchandizerid",
          "type": "string"
        },
        {
          "internalType": "string",
          "name": "treatement",
          "type": "string"
        },
        {
          "internalType": "enum Supplychain.State",
          "name": "itemState",
          "type": "uint8"
        },
        {
          "internalType": "string",
          "name": "empID",
          "type": "string"
        },
        {
          "internalType": "string",
          "name": "machine_id",
          "type": "string"
        },
        {
          "internalType": "uint256",
          "name": "time",
          "type": "uint256"
        }
      ],
      "payable": false,
      "stateMutability": "view",
      "type": "function"
    },
    {
      "constant": true,
      "inputs": [
        {
          "internalType": "string",
          "name": "_upc",
          "type": "string"
        },
        {
          "internalType": "string",
          "name": "_productupc",
          "type": "string"
        }
      ],
      "name": "fetchitemHistory",
      "outputs": [
        {
          "internalType": "uint256",
          "name": "blockSupplierToDistributor",
          "type": "uint256"
        },
        {
          "internalType": "uint256",
          "name": "blockManufacturerToBrand",
          "type": "uint256"
        },
        {
          "internalType": "uint256",
          "name": "blockpurchsetoprocess",
          "type": "uint256"
        },
        {
          "internalType": "uint256",
          "name": "blockprocesstopacakge",
          "type": "uint256"
        }
      ],
      "payable": false,
      "stateMutability": "view",
      "type": "function"
    }
  ],
  "bytecode": "0x608060405234801561001057600080fd5b5033600560006101000a81548173ffffffffffffffffffffffffffffffffffffffff021916908373ffffffffffffffffffffffffffffffffffffffff160217905550600160038190555060016002819055506142de806100716000396000f3fe608060405234801561001057600080fd5b50600436106101005760003560e01c8063a2a7360b11610097578063db158b9f11610066578063db158b9f146102f0578063df9dc8a714610323578063ebaebebe1461033f578063ee69a7001461036f57610100565b8063a2a7360b14610231578063c83d1c021461024d578063ca18e5a914610288578063cc8f1256146102c057610100565b806349f7a785116100d357806349f7a785146101a75780635aeb422a146101c35780637e292f8c146101df5780637e35159a146101fb57610100565b80630174ce8c146101055780631c05cb0b146101215780632fa734241461015257806335a6f3ba1461016e575b600080fd5b61011f600480360361011a919081019061339f565b6103a0565b005b61013b600480360361013691908101906132f2565b610abe565b604051610149929190613994565b60405180910390f35b61016c600480360361016791908101906135ce565b610ad0565b005b610188600480360361018391908101906132f2565b610c09565b60405161019e9a99989796959493929190613e1a565b60405180910390f35b6101c160048036036101bc9190810190613622565b6111c4565b005b6101dd60048036036101d891908101906132f2565b6114c5565b005b6101f960048036036101f491908101906132f2565b6115bd565b005b610215600480360361021091908101906132f2565b6117e4565b6040516102289796959493929190613f82565b60405180910390f35b61024b600480360361024691908101906132f2565b611de8565b005b610267600480360361026291908101906136f5565b611e65565b60405161027f9c9b9a99989796959493929190613ccf565b60405180910390f35b6102a2600480360361029d91908101906132f2565b6122dc565b6040516102b799989796959493929190613ed9565b60405180910390f35b6102da60048036036102d591908101906132b6565b6128f2565b6040516102e79190613dff565b60405180910390f35b61030a60048036036103059190810190613333565b612917565b60405161031a9493929190614006565b60405180910390f35b61033d600480360361033891908101906134b8565b6129f5565b005b610359600480360361035491908101906136a1565b612e16565b6040516103669190613979565b60405180910390f35b610389600480360361038491908101906132f2565b612e77565b604051610397929190613994565b60405180910390f35b60006040518061018001604052808481526020018681526020013373ffffffffffffffffffffffffffffffffffffffff1681526020016005600a8111156103e357fe5b815260200160025481526020018273ffffffffffffffffffffffffffffffffffffffff1681526020018381526020014281526020013373ffffffffffffffffffffffffffffffffffffffff168152602001858152602001878152602001888152506007866040516104549190613962565b9081526020016040518091039020600082015181600001908051906020019061047e929190612e89565b50602082015181600101908051906020019061049b929190612e89565b5060408201518160020160006101000a81548173ffffffffffffffffffffffffffffffffffffffff021916908373ffffffffffffffffffffffffffffffffffffffff16021790555060608201518160020160146101000a81548160ff0219169083600a81111561050757fe5b02179055506080820151816003015560a08201518160040160006101000a81548173ffffffffffffffffffffffffffffffffffffffff021916908373ffffffffffffffffffffffffffffffffffffffff16021790555060c0820151816005019080519060200190610579929190612e89565b5060e082015181600601556101008201518160070160006101000a81548173ffffffffffffffffffffffffffffffffffffffff021916908373ffffffffffffffffffffffffffffffffffffffff1602179055506101208201518160080190805190602001906105e9929190612e89565b50610140820151816009019080519060200190610607929190612e89565b5061016082015181600a019080519060200190610625929190612e89565b509050506000334260405160200161063e929190613936565b6040516020818303038152906040528051906020012060001c90506008600082815260200190815260200160002060078760405161067c9190613962565b90815260200160405180910390209080600181540180825580915050906001820390600052602060002090600b020160009091929091909150600082018160000190805460018160011615610100020316600290046106dc929190612f09565b5060018201816001019080546001816001161561010002031660029004610704929190612f09565b506002820160009054906101000a900473ffffffffffffffffffffffffffffffffffffffff168160020160006101000a81548173ffffffffffffffffffffffffffffffffffffffff021916908373ffffffffffffffffffffffffffffffffffffffff1602179055506002820160149054906101000a900460ff168160020160146101000a81548160ff0219169083600a81111561079d57fe5b0217905550600382015481600301556004820160009054906101000a900473ffffffffffffffffffffffffffffffffffffffff168160040160006101000a81548173ffffffffffffffffffffffffffffffffffffffff021916908373ffffffffffffffffffffffffffffffffffffffff1602179055506005820181600501908054600181600116156101000203166002900461083a929190612f09565b50600682015481600601556007820160009054906101000a900473ffffffffffffffffffffffffffffffffffffffff168160070160006101000a81548173ffffffffffffffffffffffffffffffffffffffff021916908373ffffffffffffffffffffffffffffffffffffffff160217905550600882018160080190805460018160011615610100020316600290046108d3929190612f09565b50600982018160090190805460018160011615610100020316600290046108fb929190612f09565b50600a820181600a019080546001816001161561010002031660029004610923929190612f09565b50505050436009876040516109389190613962565b908152602001604051809103902060020181905550600560078760405161095f9190613962565b908152602001604051809103902060020160146101000a81548160ff0219169083600a81111561098b57fe5b02179055506001600254016002819055507f8472a3187b323754e986421d629364aaad61190d25250ffc773acb30f4a1001a866002543387600080876040516109da97969594939291906139e6565b60405180910390a17f87bbf2d71b38f5f32a847e9d8591d1f63db0a35b0df3b2c9685cbf49f000211a600787604051610a139190613962565b9081526020016040518091039020600a01600788604051610a349190613962565b9081526020016040518091039020600901600789604051610a559190613962565b9081526020016040518091039020600501604051610a7593929190613db3565b60405180910390a17f5136cdd9fe4cca8c2d82ec5b188c2ec8df05d33e898e5d55ada98486f2e66c8586604051610aac91906139c4565b60405180910390a15050505050505050565b60006060338381915091509150915091565b600782604051610ae09190613962565b908152602001604051809103902060070160009054906101000a900473ffffffffffffffffffffffffffffffffffffffff168073ffffffffffffffffffffffffffffffffffffffff163373ffffffffffffffffffffffffffffffffffffffff1614610b4a57600080fd5b6009600784604051610b5c9190613962565b908152602001604051809103902060020160146101000a81548160ff0219169083600a811115610b8857fe5b02179055507fe229391d3f59acc0070484e568e9c66d4832d670193d6d4db979c628f9b6a78c834284600080604051610bc5959493929190613c62565b60405180910390a17f8f5644485c3dd1bb20bfa874ec90e652671052ec110c71a60da7fc53faf76b6983604051610bfc91906139c4565b60405180910390a1505050565b6000606060008060608060006060806000610c22612f90565b60078c604051610c329190613962565b908152602001604051809103902060405180610180016040529081600082018054600181600116156101000203166002900480601f016020809104026020016040519081016040528092919081815260200182805460018160011615610100020316600290048015610ce55780601f10610cba57610100808354040283529160200191610ce5565b820191906000526020600020905b815481529060010190602001808311610cc857829003601f168201915b50505050508152602001600182018054600181600116156101000203166002900480601f016020809104026020016040519081016040528092919081815260200182805460018160011615610100020316600290048015610d875780601f10610d5c57610100808354040283529160200191610d87565b820191906000526020600020905b815481529060010190602001808311610d6a57829003601f168201915b505050505081526020016002820160009054906101000a900473ffffffffffffffffffffffffffffffffffffffff1673ffffffffffffffffffffffffffffffffffffffff1673ffffffffffffffffffffffffffffffffffffffff1681526020016002820160149054906101000a900460ff16600a811115610e0457fe5b600a811115610e0f57fe5b8152602001600382015481526020016004820160009054906101000a900473ffffffffffffffffffffffffffffffffffffffff1673ffffffffffffffffffffffffffffffffffffffff1673ffffffffffffffffffffffffffffffffffffffff168152602001600582018054600181600116156101000203166002900480601f016020809104026020016040519081016040528092919081815260200182805460018160011615610100020316600290048015610f0c5780601f10610ee157610100808354040283529160200191610f0c565b820191906000526020600020905b815481529060010190602001808311610eef57829003601f168201915b50505050508152602001600682015481526020016007820160009054906101000a900473ffffffffffffffffffffffffffffffffffffffff1673ffffffffffffffffffffffffffffffffffffffff1673ffffffffffffffffffffffffffffffffffffffff168152602001600882018054600181600116156101000203166002900480601f01602080910402602001604051908101604052809291908181526020018280546001816001161561010002031660029004801561100e5780601f10610fe35761010080835404028352916020019161100e565b820191906000526020600020905b815481529060010190602001808311610ff157829003601f168201915b50505050508152602001600982018054600181600116156101000203166002900480601f0160208091040260200160405190810160405280929190818152602001828054600181600116156101000203166002900480156110b05780601f10611085576101008083540402835291602001916110b0565b820191906000526020600020905b81548152906001019060200180831161109357829003601f168201915b50505050508152602001600a82018054600181600116156101000203166002900480601f0160208091040260200160405190810160405280929190818152602001828054600181600116156101000203166002900480156111525780601f1061112757610100808354040283529160200191611152565b820191906000526020600020905b81548152906001019060200180831161113557829003601f168201915b505050505081525050905080608001518161016001518261010001518360a00151846101200151856000015186606001518760c001518861014001518960e001518898508595508494508292508191509a509a509a509a509a509a509a509a509a509a50509193959799509193959799565b336006846040516111d59190613962565b908152602001604051809103902060030160006101000a81548173ffffffffffffffffffffffffffffffffffffffff021916908373ffffffffffffffffffffffffffffffffffffffff160217905550336006846040516112359190613962565b9081526020016040518091039020600d0160006101000a81548173ffffffffffffffffffffffffffffffffffffffff021916908373ffffffffffffffffffffffffffffffffffffffff16021790555060026006846040516112969190613962565b9081526020016040518091039020600b0160006101000a81548160ff0219169083600a8111156112c257fe5b0217905550806006846040516112d89190613962565b9081526020016040518091039020600c0190805190602001906112fc92919061303e565b50600a8160405161130d9190613962565b908152602001604051809103902060068460405161132b9190613962565b908152602001604051809103902060040160009054906101000a900473ffffffffffffffffffffffffffffffffffffffff1690806001815401808255809150509060018203906000526020600020016000909192909190916101000a81548173ffffffffffffffffffffffffffffffffffffffff021916908373ffffffffffffffffffffffffffffffffffffffff16021790555050436009846040516113d19190613962565b9081526020016040518091039020600001819055507fe229391d3f59acc0070484e568e9c66d4832d670193d6d4db979c628f9b6a78c8342838560068860405161141b9190613962565b908152602001604051809103902060040160009054906101000a900473ffffffffffffffffffffffffffffffffffffffff1660098960405161145d9190613962565b90815260200160405180910390206000015460405161148196959493929190613b86565b60405180910390a17f5c6c07c7c755a7ead5dbf809af708bba54843378da0a7827b46fcba1479d4ea6836040516114b891906139c4565b60405180910390a1505050565b6006816040516114d59190613962565b908152602001604051809103902060040160009054906101000a900473ffffffffffffffffffffffffffffffffffffffff168073ffffffffffffffffffffffffffffffffffffffff163373ffffffffffffffffffffffffffffffffffffffff161461153f57600080fd5b60036006836040516115519190613962565b9081526020016040518091039020600b0160006101000a81548160ff0219169083600a81111561157d57fe5b02179055507f02bd5fb2806440dfe06b0b2e0e7f995325c437addd16b0655852a2df08033487826040516115b191906139c4565b60405180910390a15050565b336007826040516115ce9190613962565b908152602001604051809103902060040160006101000a81548173ffffffffffffffffffffffffffffffffffffffff021916908373ffffffffffffffffffffffffffffffffffffffff1602179055503360078260405161162e9190613962565b908152602001604051809103902060020160006101000a81548173ffffffffffffffffffffffffffffffffffffffff021916908373ffffffffffffffffffffffffffffffffffffffff1602179055506007808260405161168e9190613962565b908152602001604051809103902060020160146101000a81548160ff0219169083600a8111156116ba57fe5b021790555060086007826040516116d19190613962565b908152602001604051809103902060020160146101000a81548160ff0219169083600a8111156116fd57fe5b0217905550436009826040516117139190613962565b9081526020016040518091039020600101819055507fe229391d3f59acc0070484e568e9c66d4832d670193d6d4db979c628f9b6a78c8142600060078560405161175d9190613962565b908152602001604051809103902060040160009054906101000a900473ffffffffffffffffffffffffffffffffffffffff1660006040516117a2959493929190613bf5565b60405180910390a17f5c01b9ae7609babb5bba8f3fbd32cc7234efc07fb0b21c2f778e26f3fd8ac690816040516117d991906139c4565b60405180910390a150565b6000606080600080600060606117f86130be565b6006896040516118089190613962565b9081526020016040518091039020604051806101e001604052908160008201548152602001600182018054600181600116156101000203166002900480601f0160208091040260200160405190810160405280929190818152602001828054600181600116156101000203166002900480156118c55780601f1061189a576101008083540402835291602001916118c5565b820191906000526020600020905b8154815290600101906020018083116118a857829003601f168201915b50505050508152602001600282015481526020016003820160009054906101000a900473ffffffffffffffffffffffffffffffffffffffff1673ffffffffffffffffffffffffffffffffffffffff1673ffffffffffffffffffffffffffffffffffffffff1681526020016004820160009054906101000a900473ffffffffffffffffffffffffffffffffffffffff1673ffffffffffffffffffffffffffffffffffffffff1673ffffffffffffffffffffffffffffffffffffffff168152602001600582018054600181600116156101000203166002900480601f016020809104026020016040519081016040528092919081815260200182805460018160011615610100020316600290048015611a1d5780601f106119f257610100808354040283529160200191611a1d565b820191906000526020600020905b815481529060010190602001808311611a0057829003601f168201915b50505050508152602001600682018054600181600116156101000203166002900480601f016020809104026020016040519081016040528092919081815260200182805460018160011615610100020316600290048015611abf5780601f10611a9457610100808354040283529160200191611abf565b820191906000526020600020905b815481529060010190602001808311611aa257829003601f168201915b50505050508152602001600782018054600181600116156101000203166002900480601f016020809104026020016040519081016040528092919081815260200182805460018160011615610100020316600290048015611b615780601f10611b3657610100808354040283529160200191611b61565b820191906000526020600020905b815481529060010190602001808311611b4457829003601f168201915b505050505081526020016008820154815260200160098201548152602001600a82018054600181600116156101000203166002900480601f016020809104026020016040519081016040528092919081815260200182805460018160011615610100020316600290048015611c175780601f10611bec57610100808354040283529160200191611c17565b820191906000526020600020905b815481529060010190602001808311611bfa57829003601f168201915b50505050508152602001600b820160009054906101000a900460ff16600a811115611c3e57fe5b600a811115611c4957fe5b8152602001600c82018054600181600116156101000203166002900480601f016020809104026020016040519081016040528092919081815260200182805460018160011615610100020316600290048015611ce65780601f10611cbb57610100808354040283529160200191611ce6565b820191906000526020600020905b815481529060010190602001808311611cc957829003601f168201915b50505050508152602001600d820160009054906101000a900473ffffffffffffffffffffffffffffffffffffffff1673ffffffffffffffffffffffffffffffffffffffff1673ffffffffffffffffffffffffffffffffffffffff168152602001600e820160009054906101000a900473ffffffffffffffffffffffffffffffffffffffff1673ffffffffffffffffffffffffffffffffffffffff1673ffffffffffffffffffffffffffffffffffffffff1681525050905080600001518160200151826101400151836101600151846101a00151856101c00151866101800151859550849450809050975097509750975097509750975050919395979092949650565b6006600782604051611dfa9190613962565b908152602001604051809103902060020160146101000a81548160ff0219169083600a811115611e2657fe5b02179055507fe00f9a64f66dcbbe0315ef20b468e5a240ead38decd3a7899a717cce5805a15b81604051611e5a91906139c4565b60405180910390a150565b60086020528160005260406000208181548110611e7e57fe5b90600052602060002090600b020160009150915050806000018054600181600116156101000203166002900480601f016020809104026020016040519081016040528092919081815260200182805460018160011615610100020316600290048015611f2b5780601f10611f0057610100808354040283529160200191611f2b565b820191906000526020600020905b815481529060010190602001808311611f0e57829003601f168201915b505050505090806001018054600181600116156101000203166002900480601f016020809104026020016040519081016040528092919081815260200182805460018160011615610100020316600290048015611fc95780601f10611f9e57610100808354040283529160200191611fc9565b820191906000526020600020905b815481529060010190602001808311611fac57829003601f168201915b5050505050908060020160009054906101000a900473ffffffffffffffffffffffffffffffffffffffff16908060020160149054906101000a900460ff16908060030154908060040160009054906101000a900473ffffffffffffffffffffffffffffffffffffffff1690806005018054600181600116156101000203166002900480601f0160208091040260200160405190810160405280929190818152602001828054600181600116156101000203166002900480156120cc5780601f106120a1576101008083540402835291602001916120cc565b820191906000526020600020905b8154815290600101906020018083116120af57829003601f168201915b5050505050908060060154908060070160009054906101000a900473ffffffffffffffffffffffffffffffffffffffff1690806008018054600181600116156101000203166002900480601f0160208091040260200160405190810160405280929190818152602001828054600181600116156101000203166002900480156121965780601f1061216b57610100808354040283529160200191612196565b820191906000526020600020905b81548152906001019060200180831161217957829003601f168201915b505050505090806009018054600181600116156101000203166002900480601f0160208091040260200160405190810160405280929190818152602001828054600181600116156101000203166002900480156122345780601f1061220957610100808354040283529160200191612234565b820191906000526020600020905b81548152906001019060200180831161221757829003601f168201915b50505050509080600a018054600181600116156101000203166002900480601f0160208091040260200160405190810160405280929190818152602001828054600181600116156101000203166002900480156122d25780601f106122a7576101008083540402835291602001916122d2565b820191906000526020600020905b8154815290600101906020018083116122b557829003601f168201915b505050505090508c565b6000606060008060608060606000806122f36130be565b60068b6040516123039190613962565b9081526020016040518091039020604051806101e001604052908160008201548152602001600182018054600181600116156101000203166002900480601f0160208091040260200160405190810160405280929190818152602001828054600181600116156101000203166002900480156123c05780601f10612395576101008083540402835291602001916123c0565b820191906000526020600020905b8154815290600101906020018083116123a357829003601f168201915b50505050508152602001600282015481526020016003820160009054906101000a900473ffffffffffffffffffffffffffffffffffffffff1673ffffffffffffffffffffffffffffffffffffffff1673ffffffffffffffffffffffffffffffffffffffff1681526020016004820160009054906101000a900473ffffffffffffffffffffffffffffffffffffffff1673ffffffffffffffffffffffffffffffffffffffff1673ffffffffffffffffffffffffffffffffffffffff168152602001600582018054600181600116156101000203166002900480601f0160208091040260200160405190810160405280929190818152602001828054600181600116156101000203166002900480156125185780601f106124ed57610100808354040283529160200191612518565b820191906000526020600020905b8154815290600101906020018083116124fb57829003601f168201915b50505050508152602001600682018054600181600116156101000203166002900480601f0160208091040260200160405190810160405280929190818152602001828054600181600116156101000203166002900480156125ba5780601f1061258f576101008083540402835291602001916125ba565b820191906000526020600020905b81548152906001019060200180831161259d57829003601f168201915b50505050508152602001600782018054600181600116156101000203166002900480601f01602080910402602001604051908101604052809291908181526020018280546001816001161561010002031660029004801561265c5780601f106126315761010080835404028352916020019161265c565b820191906000526020600020905b81548152906001019060200180831161263f57829003601f168201915b505050505081526020016008820154815260200160098201548152602001600a82018054600181600116156101000203166002900480601f0160208091040260200160405190810160405280929190818152602001828054600181600116156101000203166002900480156127125780601f106126e757610100808354040283529160200191612712565b820191906000526020600020905b8154815290600101906020018083116126f557829003601f168201915b50505050508152602001600b820160009054906101000a900460ff16600a81111561273957fe5b600a81111561274457fe5b8152602001600c82018054600181600116156101000203166002900480601f0160208091040260200160405190810160405280929190818152602001828054600181600116156101000203166002900480156127e15780601f106127b6576101008083540402835291602001916127e1565b820191906000526020600020905b8154815290600101906020018083116127c457829003601f168201915b50505050508152602001600d820160009054906101000a900473ffffffffffffffffffffffffffffffffffffffff1673ffffffffffffffffffffffffffffffffffffffff1673ffffffffffffffffffffffffffffffffffffffff168152602001600e820160009054906101000a900473ffffffffffffffffffffffffffffffffffffffff1673ffffffffffffffffffffffffffffffffffffffff1673ffffffffffffffffffffffffffffffffffffffff1681525050905080600001518160200151826060015183608001518460a001518560e001518660c001518761010001518860400151879750849450839350829250995099509950995099509950995099509950509193959799909294969850565b600b602052816000526040600020602052806000526040600020600091509150505481565b600080600080612925613197565b6009876040516129359190613962565b90815260200160405180910390206040518060800160405290816000820154815260200160018201548152602001600282015481526020016003820154815250509050806000015160098760405161298d9190613962565b9081526020016040518091039020600101546009886040516129af9190613962565b9081526020016040518091039020600201546009896040516129d19190613962565b90815260200160405180910390206003015494509450945094505092959194509250565b604051806101e0016040528060035481526020018881526020014281526020013373ffffffffffffffffffffffffffffffffffffffff1681526020013373ffffffffffffffffffffffffffffffffffffffff1681526020018781526020018681526020018581526020018381526020018281526020018481526020016000600a811115612a7e57fe5b8152602001604051806020016040528060008152508152602001600073ffffffffffffffffffffffffffffffffffffffff168152602001600073ffffffffffffffffffffffffffffffffffffffff16815250600688604051612ae09190613962565b9081526020016040518091039020600082015181600001556020820151816001019080519060200190612b14929190612e89565b506040820151816002015560608201518160030160006101000a81548173ffffffffffffffffffffffffffffffffffffffff021916908373ffffffffffffffffffffffffffffffffffffffff16021790555060808201518160040160006101000a81548173ffffffffffffffffffffffffffffffffffffffff021916908373ffffffffffffffffffffffffffffffffffffffff16021790555060a0820151816005019080519060200190612bc9929190612e89565b5060c0820151816006019080519060200190612be6929190612e89565b5060e0820151816007019080519060200190612c03929190612e89565b506101008201518160080155610120820151816009015561014082015181600a019080519060200190612c37929190612e89565b5061016082015181600b0160006101000a81548160ff0219169083600a811115612c5d57fe5b021790555061018082015181600c019080519060200190612c7f929190612e89565b506101a082015181600d0160006101000a81548173ffffffffffffffffffffffffffffffffffffffff021916908373ffffffffffffffffffffffffffffffffffffffff1602179055506101c082015181600e0160006101000a81548173ffffffffffffffffffffffffffffffffffffffff021916908373ffffffffffffffffffffffffffffffffffffffff160217905550905050612d1b613197565b60045481600001818152505060045481602001818152505080600989604051612d449190613962565b9081526020016040518091039020600082015181600001556020820151816001015560408201518160020155606082015181600301559050506001600354016003819055507f8472a3187b323754e986421d629364aaad61190d25250ffc773acb30f4a1001a88600354338a8a8a8a8a8a6000604051612dcd9a99989796959493929190613ab3565b60405180910390a17f8ad5b8310cac33620229df6b03690c1135ac7e01bbf7f6f0678670aad0979e5f88604051612e0491906139c4565b60405180910390a15050505050505050565b600a828051602081018201805184825260208301602085012081835280955050505050508181548110612e4557fe5b906000526020600020016000915091509054906101000a900473ffffffffffffffffffffffffffffffffffffffff1681565b60006060338381915091509150915091565b828054600181600116156101000203166002900490600052602060002090601f016020900481019282601f10612eca57805160ff1916838001178555612ef8565b82800160010185558215612ef8579182015b82811115612ef7578251825591602001919060010190612edc565b5b509050612f0591906131bf565b5090565b828054600181600116156101000203166002900490600052602060002090601f016020900481019282601f10612f425780548555612f7f565b82800160010185558215612f7f57600052602060002091601f016020900482015b82811115612f7e578254825591600101919060010190612f63565b5b509050612f8c91906131bf565b5090565b6040518061018001604052806060815260200160608152602001600073ffffffffffffffffffffffffffffffffffffffff1681526020016000600a811115612fd457fe5b815260200160008152602001600073ffffffffffffffffffffffffffffffffffffffff1681526020016060815260200160008152602001600073ffffffffffffffffffffffffffffffffffffffff1681526020016060815260200160608152602001606081525090565b828054600181600116156101000203166002900490600052602060002090601f016020900481019282601f1061307f57805160ff19168380011785556130ad565b828001600101855582156130ad579182015b828111156130ac578251825591602001919060010190613091565b5b5090506130ba91906131bf565b5090565b604051806101e00160405280600081526020016060815260200160008152602001600073ffffffffffffffffffffffffffffffffffffffff168152602001600073ffffffffffffffffffffffffffffffffffffffff1681526020016060815260200160608152602001606081526020016000815260200160008152602001606081526020016000600a81111561315057fe5b815260200160608152602001600073ffffffffffffffffffffffffffffffffffffffff168152602001600073ffffffffffffffffffffffffffffffffffffffff1681525090565b6040518060800160405280600081526020016000815260200160008152602001600081525090565b6131e191905b808211156131dd5760008160009055506001016131c5565b5090565b90565b6000813590506131f38161426d565b92915050565b600082601f83011261320a57600080fd5b813561321d61321882614078565b61404b565b9150808252602083016020830185838301111561323957600080fd5b6132448382846141d2565b50505092915050565b600082601f83011261325e57600080fd5b813561327161326c826140a4565b61404b565b9150808252602083016020830185838301111561328d57600080fd5b6132988382846141d2565b50505092915050565b6000813590506132b081614284565b92915050565b600080604083850312156132c957600080fd5b60006132d7858286016131e4565b92505060206132e8858286016131e4565b9150509250929050565b60006020828403121561330457600080fd5b600082013567ffffffffffffffff81111561331e57600080fd5b61332a8482850161324d565b91505092915050565b6000806040838503121561334657600080fd5b600083013567ffffffffffffffff81111561336057600080fd5b61336c8582860161324d565b925050602083013567ffffffffffffffff81111561338957600080fd5b6133958582860161324d565b9150509250929050565b60008060008060008060c087890312156133b857600080fd5b600087013567ffffffffffffffff8111156133d257600080fd5b6133de89828a0161324d565b965050602087013567ffffffffffffffff8111156133fb57600080fd5b61340789828a0161324d565b955050604087013567ffffffffffffffff81111561342457600080fd5b61343089828a0161324d565b945050606087013567ffffffffffffffff81111561344d57600080fd5b61345989828a0161324d565b935050608087013567ffffffffffffffff81111561347657600080fd5b61348289828a0161324d565b92505060a087013567ffffffffffffffff81111561349f57600080fd5b6134ab89828a0161324d565b9150509295509295509295565b600080600080600080600060e0888a0312156134d357600080fd5b600088013567ffffffffffffffff8111156134ed57600080fd5b6134f98a828b0161324d565b975050602088013567ffffffffffffffff81111561351657600080fd5b6135228a828b0161324d565b965050604088013567ffffffffffffffff81111561353f57600080fd5b61354b8a828b0161324d565b955050606088013567ffffffffffffffff81111561356857600080fd5b6135748a828b0161324d565b945050608088013567ffffffffffffffff81111561359157600080fd5b61359d8a828b0161324d565b93505060a06135ae8a828b016132a1565b92505060c06135bf8a828b016132a1565b91505092959891949750929550565b600080604083850312156135e157600080fd5b600083013567ffffffffffffffff8111156135fb57600080fd5b6136078582860161324d565b9250506020613618858286016132a1565b9150509250929050565b60008060006060848603121561363757600080fd5b600084013567ffffffffffffffff81111561365157600080fd5b61365d8682870161324d565b935050602061366e868287016132a1565b925050604084013567ffffffffffffffff81111561368b57600080fd5b6136978682870161324d565b9150509250925092565b600080604083850312156136b457600080fd5b600083013567ffffffffffffffff8111156136ce57600080fd5b6136da858286016131f9565b92505060206136eb858286016132a1565b9150509250929050565b6000806040838503121561370857600080fd5b6000613716858286016132a1565b9250506020613727858286016132a1565b9150509250929050565b61373a81614178565b82525050565b61375161374c82614129565b614214565b82525050565b61376081614117565b82525050565b61376f8161418a565b82525050565b61377e8161419c565b82525050565b600061378f826140f0565b61379981856140fb565b93506137a98185602086016141e1565b6137b281614242565b840191505092915050565b60006137c8826140f0565b6137d2818561410c565b93506137e28185602086016141e1565b80840191505092915050565b60006137f9826140e5565b61380381856140fb565b93506138138185602086016141e1565b61381c81614242565b840191505092915050565b600081546001811660008114613844576001811461386a576138ae565b607f600283041661385581876140fb565b955060ff1983168652602086019350506138ae565b6002820461387881876140fb565b9550613883856140d0565b60005b828110156138a557815481890152600182019150602081019050613886565b80880195505050505b505092915050565b60006138c36000836140fb565b9150600082019050919050565b60006138dd6004836140fb565b91507f6e756c6c000000000000000000000000000000000000000000000000000000006000830152602082019050919050565b6139198161416e565b82525050565b61393061392b8261416e565b614238565b82525050565b60006139428285613740565b601482019150613952828461391f565b6020820191508190509392505050565b600061396e82846137bd565b915081905092915050565b600060208201905061398e6000830184613757565b92915050565b60006040820190506139a96000830185613757565b81810360208301526139bb8184613784565b90509392505050565b600060208201905081810360008301526139de8184613784565b905092915050565b6000610160820190508181036000830152613a01818a613784565b90508181036020830152613a14816138b6565b9050613a236040830189613910565b613a306060830188613731565b8181036080830152613a428187613784565b905081810360a0830152613a55816138d0565b905081810360c0830152613a68816138d0565b905081810360e0830152613a7b816138d0565b9050613a8b610100830186613775565b613a99610120830185613775565b613aa7610140830184613910565b98975050505050505050565b6000610160820190508181036000830152613ace818d613784565b90508181036020830152613ae1816138d0565b9050613af0604083018c613910565b613afd606083018b613731565b8181036080830152613b0f818a613784565b905081810360a0830152613b238189613784565b905081810360c0830152613b378188613784565b905081810360e0830152613b4b8187613784565b9050613b5b610100830186613910565b613b69610120830185613910565b613b77610140830184613775565b9b9a5050505050505050505050565b600060c0820190508181036000830152613ba08189613784565b9050613baf6020830188613910565b8181036040830152613bc18187613784565b9050613bd06060830186613910565b613bdd6080830185613757565b613bea60a0830184613910565b979650505050505050565b600060c0820190508181036000830152613c0f8188613784565b9050613c1e6020830187613910565b8181036040830152613c2f816138b6565b9050613c3e6060830186613775565b613c4b6080830185613757565b613c5860a0830184613775565b9695505050505050565b600060c0820190508181036000830152613c7c8188613784565b9050613c8b6020830187613910565b8181036040830152613c9c816138b6565b9050613cab6060830186613910565b613cb86080830185613731565b613cc560a0830184613775565b9695505050505050565b6000610180820190508181036000830152613cea818f6137ee565b90508181036020830152613cfe818e6137ee565b9050613d0d604083018d613757565b613d1a606083018c613766565b613d27608083018b613910565b613d3460a083018a613757565b81810360c0830152613d4681896137ee565b9050613d5560e0830188613910565b613d63610100830187613757565b818103610120830152613d7681866137ee565b9050818103610140830152613d8b81856137ee565b9050818103610160830152613da081846137ee565b90509d9c50505050505050505050505050565b60006060820190508181036000830152613dcd8186613827565b90508181036020830152613de18185613827565b90508181036040830152613df58184613827565b9050949350505050565b6000602082019050613e146000830184613910565b92915050565b600061014082019050613e30600083018d613910565b8181036020830152613e42818c613784565b9050613e51604083018b613757565b613e5e606083018a613757565b8181036080830152613e708189613784565b905081810360a0830152613e848188613784565b9050613e9360c0830187613766565b81810360e0830152613ea58186613784565b9050818103610100830152613eba8185613784565b9050613eca610120830184613910565b9b9a5050505050505050505050565b600061012082019050613eef600083018c613910565b8181036020830152613f01818b613784565b9050613f10604083018a613757565b613f1d6060830189613757565b8181036080830152613f2f8188613784565b905081810360a0830152613f438187613784565b905081810360c0830152613f578186613784565b9050613f6660e0830185613910565b613f74610100830184613910565b9a9950505050505050505050565b600060e082019050613f97600083018a613910565b8181036020830152613fa98189613784565b90508181036040830152613fbd8188613784565b9050613fcc6060830187613766565b613fd96080830186613757565b613fe660a0830185613757565b81810360c0830152613ff88184613784565b905098975050505050505050565b600060808201905061401b6000830187613910565b6140286020830186613910565b6140356040830185613910565b6140426060830184613910565b95945050505050565b6000604051905081810181811067ffffffffffffffff8211171561406e57600080fd5b8060405250919050565b600067ffffffffffffffff82111561408f57600080fd5b601f19601f8301169050602081019050919050565b600067ffffffffffffffff8211156140bb57600080fd5b601f19601f8301169050602081019050919050565b60008190508160005260206000209050919050565b600081519050919050565b600081519050919050565b600082825260208201905092915050565b600081905092915050565b60006141228261414e565b9050919050565b60006141348261414e565b9050919050565b600081905061414982614260565b919050565b600073ffffffffffffffffffffffffffffffffffffffff82169050919050565b6000819050919050565b6000614183826141ae565b9050919050565b60006141958261413b565b9050919050565b60006141a78261416e565b9050919050565b60006141b9826141c0565b9050919050565b60006141cb8261414e565b9050919050565b82818337600083830152505050565b60005b838110156141ff5780820151818401526020810190506141e4565b8381111561420e576000848401525b50505050565b600061421f82614226565b9050919050565b600061423182614253565b9050919050565b6000819050919050565b6000601f19601f8301169050919050565b60008160601b9050919050565b600b811061426a57fe5b50565b61427681614117565b811461428157600080fd5b50565b61428d8161416e565b811461429857600080fd5b5056fea365627a7a72315820a6257b4469afb9295679f78f5b03daa5e7abc93c2a97df7a33cfdc66875e58906c6578706572696d656e74616cf564736f6c63430005100040",
  "source": "// SPDX-License-Identifier: GPL-3.0\r\npragma experimental ABIEncoderV2;\r\npragma solidity >=0.4.20;\r\n\r\n //import \"../TexOwner.sol\";\r\n //use buffer 1 and 3\r\n \r\n contract AdminUser{\r\n     \r\n         //add fabric treatementt denim treatment like stone washing, sand washing, enzyme wash, acid wash, sandblasting, river wash, whiskers and vintage look.\r\n        address public lastAccess;\r\n        address public owner;\r\n        uint public creationTime;\r\n        bytes32 a;\r\n        //mapping (uint=> items) itemlist;\r\n       \r\n       \r\n        mapping(address => User) private usersdetail;\r\n        address[] private userindex;\r\n        uint count = userindex.length;\r\n        mapping(address => uint8) authorizedCaller;\r\n\r\n       \r\n       \r\n        constructor() public {\r\n            owner = msg.sender;\r\n              creationTime = block.timestamp;\r\n            authorizedCaller[msg.sender] = 1;\r\n            emit AuthorizedCaller(msg.sender);\r\n         }\r\n \r\n         struct User{\r\n            string us_name;\r\n            string password;\r\n            address Createdby;\r\n            uint creationTime;\r\n            uint index;\r\n            string email;\r\n            string location;\r\n            uint role;\r\n   \r\n         }\r\n         struct Userroles{\r\n             uint us_roles;\r\n         }\r\n         \r\n         mapping(address=>uint) us_role;\r\n         mapping(bytes32 => User) idmap;\r\n         \r\n       \r\n\r\n        event OwnershipRenounced(address indexed previousOwner);\r\n        event OwnershipTransferred(address indexed previousOwner, address indexed newOwner);\r\n        event AuthorizedCaller(address caller);\r\n        event DeAuthorizedCaller(address caller);\r\n        event LogNewUser   (address indexed _userAddress, uint index,string  name, string password,  string email, uint userrole, bytes32 _hash);\r\n        event LogUpdateUser(address indexed _userAddress, uint index,  string email, string location, string password);\r\n        event ProduceByFarmer(uint upc);         //1\r\n\r\n       \r\n        modifier onlyAuthCaller(){\r\n            lastAccess = msg.sender;\r\n            require(authorizedCaller[msg.sender] == 1);\r\n            _;\r\n        }\r\n       \r\n        modifier Onlyowner(){\r\n            require( msg.sender==owner);\r\n            _;\r\n        }\r\n       \r\n       \r\n        function renounceOwnership() public {\r\n            emit OwnershipRenounced(owner);\r\n            owner = address(0);\r\n        }\r\n       \r\n         function isOwner() public view returns (bool) {\r\n            return msg.sender == owner;\r\n        }\r\n         function isUser(address _userAddress)public view  returns(bool isIndeed) {\r\n            if(userindex.length == 0) return false;\r\n            return (userindex[usersdetail[_userAddress].index] == _userAddress);\r\n      }\r\n         \r\n         function authorizeCaller(address _caller) public Onlyowner returns(bool)\r\n        {\r\n            authorizedCaller[_caller] = 1;\r\n            emit AuthorizedCaller(_caller);\r\n            return true;\r\n        }\r\n       function rolesmapping(address role) public view returns(uint){\r\n           return(us_role[role]);\r\n       }\r\n        /* deauthorize caller */\r\n        function deAuthorizeCaller(address _caller) public Onlyowner returns(bool)\r\n        {\r\n            authorizedCaller[_caller] = 0;\r\n            emit DeAuthorizedCaller(_caller);\r\n            return true;\r\n        }\r\n       \r\n     \r\n        function setUser(address _userAddress, string memory us_name, string memory password, string memory  email, string memory location,uint   role) public  returns(bytes32 _a,uint index) {\r\n            //require(authorizedCaller[msg.sender]==1);\r\n            //authorizedCaller[msg.sender] = 0;\r\n            //require(authorizedCaller[msg.sender]==0);\r\n           \r\n            require(isUser(_userAddress)==false);\r\n           \r\n            usersdetail[_userAddress].Createdby = msg.sender;\r\n            usersdetail[_userAddress].creationTime= block.timestamp;\r\n            usersdetail[_userAddress].us_name=us_name;\r\n            usersdetail[_userAddress].password=password;\r\n            usersdetail[_userAddress].email=email;\r\n            usersdetail[_userAddress].location=location;\r\n            usersdetail[_userAddress].role=role;\r\n            us_role[_userAddress]= role;\r\n           \r\n            userindex.push(_userAddress);\r\n            usersdetail[_userAddress].index = userindex.length-1;\r\n            a= sha256(abi.encodePacked(_userAddress,us_name,location,password,email,role));\r\n            idmap[a]=usersdetail[_userAddress];\r\n           \r\n           emit  LogNewUser(\r\n            _userAddress,\r\n            usersdetail[_userAddress].index,\r\n            us_name,\r\n            password,\r\n            email,\r\n            us_role[_userAddress],\r\n            a\r\n            );\r\n           \r\n             return (a,userindex.length-1);\r\n        }\r\n        //  function getUserCount() public view returns(uint index) {\r\n        //     return userindex.length;\r\n        //     }\r\n           \r\n           \r\n        //  function getUser(address _userAddress) public  returns ( bytes32  a,\r\n        //                                                             string memory us_name,\r\n        //                                                               string memory password,\r\n        //                                                               string memory  email,\r\n        //                                                               address _Createdby,\r\n        //                                                               uint  role)\r\n        //     {\r\n        //         require(isUser(_userAddress)==true);\r\n               \r\n        //         User memory details = usersdetail[_userAddress];\r\n               \r\n        //         a= sha256(abi.encodePacked(details.us_name, details.password,details.email, details.Createdby,details.creationTime));\r\n                 \r\n        //         idmap[a]=usersdetail[_userAddress];\r\n        //         return (a,details.us_name, details.password,details.email,details.Createdby,us_role[_userAddress]);\r\n        //     }  \r\n           \r\n        function getdata(bytes32 transactionhash) public view returns(User memory used){\r\n             return (idmap[transactionhash]);\r\n           \r\n        }\r\n        function updateUser(address _userAddress, string memory email, string memory location, string memory password) public returns(bool success) {\r\n           \r\n            require(isUser(_userAddress)==true) ;\r\n            usersdetail[_userAddress].email = email;\r\n            usersdetail[_userAddress].location = location;\r\n            usersdetail[_userAddress].password = password;\r\n            emit LogUpdateUser(\r\n            _userAddress,\r\n            usersdetail[_userAddress].index,\r\n            email,\r\n            location,\r\n            password\r\n            );\r\n            return true;\r\n        }  \r\n \r\n     \r\n }\r\n    // library Roles {\r\n    //   struct Role {\r\n    //     mapping (address => bool) bearer;\r\n    //   }\r\n   \r\n    //   /**\r\n      //  * @dev give an account access to this role\r\n    //    */\r\n    //   function add(Role storage role, address _userAddress) internal {\r\n    //     require(_userAddress != address(0));\r\n    //     require(!has(role, _userAddress));\r\n   \r\n    //     role.bearer[_userAddress] = true;\r\n    //   }\r\n   \r\n    //   /**\r\n    //    * @dev remove an account's access to this role\r\n    //    */\r\n    //   function remove(Role storage role, address _userAddress) internal {\r\n    //     require(_userAddress != address(0));\r\n    //     require(has(role, _userAddress));\r\n   \r\n    //     role.bearer[_userAddress] = false;\r\n    //   }\r\n   \r\n    //   /**\r\n    //    * @dev check if an account has this role\r\n    //    * @return bool\r\n    //    */\r\n    //   function has(Role storage role, address _userAddress)\r\n    //     internal\r\n    //     view\r\n    //     returns (bool)\r\n    //   {\r\n    //     require(_userAddress != address(0));\r\n    //     return role.bearer[_userAddress];\r\n    //   }\r\n    // }\r\n     \r\n     \r\n//  contract Supplier{\r\n     \r\n//       using Roles for Roles.Role;\r\n//     uint public creationTime;\r\n//       // Define 2 events, one for Adding, and other for Removing\r\n//       event SupplierAdded(address indexed account);\r\n//       event SupplierRemoved(address indexed account);\r\n   \r\n//       // Define a struct 'farmers' by inheriting from 'Roles' library, struct Role\r\n//       Roles.Role private suppliers;\r\n   \r\n//       // In the constructor make the address that deploys this contract the 1st farmer\r\n//       constructor() public {\r\n//         _addSupplier(msg.sender);\r\n//         creationTime = block.timestamp;\r\n   \r\n//       }\r\n   \r\n//       // Define a modifier that checks to see if msg.sender has the appropriate role\r\n//       modifier onlySupplier() {\r\n//         require(isSupplier(msg.sender));\r\n//         _;\r\n//       }\r\n   \r\n//       // Define a function 'isFarmer' to check this role\r\n//       function isSupplier(address _userAddress) public view returns (bool) {\r\n//         return suppliers.has(_userAddress);\r\n//       }\r\n   \r\n//       // Define a function 'addFarmer' that adds this role\r\n//       function addSupplier(address _userAddress) public onlySupplier {\r\n//         _addSupplier(_userAddress);\r\n//       }\r\n   \r\n//       // Define a function 'renounceFarmer' to renounce this role\r\n//       function renounceSupplier() public {\r\n//         _removeSupplier(msg.sender);\r\n//       }\r\n   \r\n//       // Define an internal function '_addFarmer' to add this role, called by 'addFarmer'\r\n//       function _addSupplier(address _userAddress) internal {\r\n//         suppliers.add(_userAddress);\r\n//         emit SupplierAdded(_userAddress);\r\n//       }\r\n   \r\n//       // Define an internal function '_removeFarmer' to remove this role, called by 'removeFarmer'\r\n//       function _removeSupplier(address _userAddress) internal {\r\n//         suppliers.remove(_userAddress);\r\n//         emit SupplierRemoved(_userAddress);\r\n//       }\r\n\r\n//  }\r\n//          contract Manufacturer {\r\n             \r\n             \r\n//           using Roles for Roles.Role;\r\n         \r\n//           // Define 2 events, one for Adding, and other for Removing\r\n//           event ManufacturerAdded(address indexed _userAddress);\r\n//           event ManufacturerRemoved(address indexed _userAddress);\r\n//           address manuowner;\r\n//           bytes32 hash;\r\n         \r\n         \r\n//           // Define a struct 'distributors' by inheriting from 'Roles' library, struct Role\r\n//           Roles.Role private distributors;\r\n//         event LogNewUser   (address indexed _userAddress, uint index);\r\n\r\n//           address[] private userindex;\r\n   \r\n//           // In the constructor make the address that deploys this contract the 1st distributor\r\n//           constructor() public {\r\n//               manuowner =msg.sender;\r\n//             _addDistributor(msg.sender);\r\n//           }\r\n//         modifier onlyManufacturer(){\r\n//             require(msg.sender == manuowner);\r\n//             _;\r\n//         }\r\n//           // Define a modifier that checks to see if msg.sender has the appropriate role\r\n//           modifier onlyDistributor() {\r\n//             require(isDistributor(msg.sender));\r\n           \r\n//             _;\r\n           \r\n           \r\n//           }\r\n       \r\n//           // Define a function 'isDistributor' to check this role\r\n//           function isDistributor(address account) public view returns (bool) {\r\n             \r\n//             return distributors.has(account);\r\n//           }\r\n  \r\n       \r\n//     // Define a function 'addDistributor' that adds this role\r\n//           function addDistributor(address account) public onlyDistributor {\r\n//             _addDistributor(account);\r\n//           }\r\n       \r\n//           // Define a function 'renounceDistributor' to renounce this role\r\n//           function renounceDistributor() public {\r\n//             _removeDistributor(msg.sender);\r\n//           }\r\n       \r\n//           // Define an internal function '_addDistributor' to add this role, called by 'addDistributor'\r\n//           function _addDistributor(address account) internal {\r\n//             distributors.add(account);\r\n//             emit ManufacturerAdded(account);\r\n//           }\r\n       \r\n//           // Define an internal function '_removeDistributor' to remove this role, called by 'removeDistributor'\r\n//           function _removeDistributor(address account) internal {\r\n//             distributors.remove(account);\r\n//             emit ManufacturerRemoved(account);\r\n//           }\r\n//         }\r\n//    contract Brand {\r\n//       using Roles for Roles.Role;\r\n//       // Define 2 events, one for Adding, and other for Removing\r\n//       event ConsumerAdded(address indexed account);\r\n//       event ConsumerRemoved(address indexed account);\r\n   \r\n//       // Define a struct 'consumers' by inheriting from 'Roles' library, struct Role\r\n//       Roles.Role private consumers;\r\n//       // In the constructor make the address that deploys this contract the 1st consumer\r\n//       constructor() public {\r\n//         //_addConstructor(msg.sender);\r\n//         _addConsumer(msg.sender);\r\n//       }\r\n   \r\n//       // Define a modifier that checks to see if msg.sender has the appropriate role\r\n//       modifier onlyBrand() {\r\n//         require(isBrand(msg.sender));\r\n//         _;\r\n//       }\r\n   \r\n//       // Define a function 'isConsumer' to check this role\r\n//       function isBrand(address account) public view returns (bool) {\r\n//         return consumers.has(account);\r\n//       }\r\n   \r\n//       // Define a function 'addConsumer' that adds this role\r\n//       function addBrand(address account) public onlyBrand {\r\n//         _addConsumer(account);\r\n//       }\r\n   \r\n//       // Define a function 'renounceConsumer' to renounce this role\r\n//       function renounceConsumer(address account) public {\r\n//         _removeConsumer(account);\r\n//       }\r\n   \r\n//       // Define an internal function '_addConsumer' to add this role, called by 'addConsumer'\r\n//       function _addConsumer(address account) internal {\r\n//         consumers.add(account);\r\n//         emit ConsumerAdded(account);\r\n//       }\r\n   \r\n//       // Define an internal function '_removeConsumer' to remove this role, called by 'removeConsumer'\r\n//       function _removeConsumer(address account) internal {\r\n//         consumers.remove(account);\r\n//         emit ConsumerRemoved(account);\r\n//       }\r\n// }      \r\n  contract Supplychain{\r\n     \r\n     \r\n           \r\n          // Define a variable called 'upc' for Universal Product Code (UPC),12 digit codes.\r\n        string  upc;\r\n        string productupc;\r\n        uint productsku;\r\n       \r\n        // Define a variable called 'sku' for Stock Keeping Unit (SKU),string of alpha and numeric,unique to the companies ,8 digit\r\n        uint  sku;\r\n        uint placeholder; // Block number place holder\r\n        address owner;\r\n        // Define a public mapping 'items' that maps the UPC to an Item.\r\n        mapping (string => Item)  items;\r\n        mapping (string => Denim) products;\r\n        mapping (uint256 =>Denim[])  public idToProof;\r\n       \r\n         // Define a public mapping 'itemsHistory' that maps the UPC to an array of TxHash,\r\n        // that track its journey through the supply chain -- to be sent from DApp.\r\n        mapping (string => Txblocks) itemsHistory;\r\n        mapping (string=>address[]) public merhmap;\r\n        //mapping()\r\n        mapping(address=>mapping(address=>uint)) public mechsupquantity;\r\n        // Define enum 'State' with the following values:\r\n        enum State\r\n        {\r\n            ProduceBySupplier,         // 0\r\n            ForSaleBySupplier,         // 1\r\n            PurchasedByManufacturer,  // 2\r\n            ShippedBySupplier,         // 3\r\n            ReceivedByManufacturer,   // 4\r\n            ProcessedByManufacturer,  // 5\r\n            PackagedByManufacturer,    // 6\r\n            ForSaleByManufacturer,    // 7\r\n            PurchasedByBrand,         // 8\r\n            ShippedByManufacturer,    // 9\r\n            ReceivedByBrand// 10\r\n        }\r\n       \r\n        struct Item {\r\n            uint    sku;                    // Stock Keeping Unit (SKU)\r\n            string    upc;                    // Universal Product Code (UPC), generated by the Farmer, goes on the package, can be verified by the Consumer\r\n            uint creationTime;\r\n            address ownerID;                // Metamask-Ethereum address of the current owner as the product moves through 8 stages\r\n            address originsupplierID;         // Metamask-Ethereum address of the Farmer // ADDED PAYABLE\r\n            string  originsupplierName;         // Farmer Name\r\n            string  originsupplierLatitude;     // Farm Latitude\r\n            string  originsupplierLongitude;    // Farm Longitude\r\n            uint    productPrice;           // Product Price\r\n            uint quantity;\r\n            string materialtype;\r\n            State   itemState;// Product State as represented in the enum above\r\n            string merchandizerid;\r\n            address manufacturerID;          // Metamask-Ethereum address of the Distributor\r\n            address brandID;             // Metamask-Ethereum address of the Consumer // ADDED payable\r\n        }\r\n       \r\n        struct Denim {\r\n           \r\n            string treatements;\r\n            string productupc;\r\n            address ownerID;\r\n            State productstate;\r\n            uint productsku;\r\n            address brandID;\r\n            string empID;\r\n            uint256 creationTime;\r\n            address manufacturerID;\r\n            string merchandizerid;\r\n            \r\n            string  machine_id;\r\n            string itemsUPC;\r\n\r\n        }\r\n\r\n       \r\n        struct Txblocks {\r\n            uint FTD; // blockfarmerToDistributor\r\n            uint RTC; // blockRetailerToConsumer\r\n            uint PM;//blockpurchsetoprocess\r\n            uint PPA;//blockprocesstopacakge\r\n          }\r\n         \r\n        State constant defaultState = State.ProduceBySupplier;\r\n        event LogProductDetails(string _upc, string _machineid, string _employeeid);\r\n        event logNewItem   (string _upc,string upc,uint sku, address employee, string  _originsupplierName, string  _originsupplierLatitude, string  _originsupplierLongitude,string  _materialtype, uint _price, uint  _quantity, uint256 hash );\r\n        event lognewPurchse   (string _upc,uint time,   string _merch,uint _quantity, address originsupplierID, uint256 FTD);\r\n        event QuantityLesserThanRequired(uint upc);\r\n        event ProduceBySupplier(string upc);         //1\r\n        event ForSaleBySupplier(string upc); //2\r\n        event PurchasedByManufacturer(string upc);  //3\r\n        event ShippedBySupplier(string upc);         //4\r\n        event ReceivedByManufacturer(string upc);   //5\r\n        event ProcessedByManufacturer(string upc);  //6\r\n        event PackagedByManufacturer(string upc);   //7\r\n        event ForSaleByManufacturer(string upc);    //8\r\n        event PurchasedByBrand(string upc);     //13\r\n        event ShippedByManufacturer(string upc);    //10\r\n        event ReceivedByBrand(string upc);     //13\r\n       \r\n        // modifier forSaleBySupplier(string _upc) {\r\n        // require(items[_upc].itemState == State.ForSaleBySupplier);\r\n        // _;\r\n        // }\r\n        // modifier producedBySupplier(string _upc) {\r\n        // require(items[_upc].itemState == State.ProduceBySupplier);\r\n        // _;\r\n        // }\r\n        modifier verifyCaller (address _userAddress) {\r\n        require(msg.sender == _userAddress);\r\n        _;\r\n        }\r\n        // modifier purchasedByManufacturer(string _upc) {\r\n        // require(items[_upc].itemState == State.PurchasedByManufacturer);\r\n        // _;\r\n        // }\r\n       \r\n        // modifier shippedBySupplier(string _upc) {\r\n        // require(items[_upc].itemState == State.ShippedBySupplier);\r\n        // _;\r\n        // }\r\n       \r\n        // modifier receivedByManufacturer(string _upc) {\r\n        // require(items[_upc].itemState == State.ReceivedByManufacturer);\r\n        // _;\r\n        // }\r\n       \r\n//         modifier processByManufacturer(string _upc) {\r\n//         require(products[_upc].productstate == State.ProcessedByManufacturer);\r\n//         _;\r\n//         }\r\n       \r\n//         modifier packagedByManufacturer(string _upc) {\r\n//         require(products[_upc].productstate == State.PackagedByManufacturer);\r\n//         _;\r\n//         }\r\n//         modifier forSaleByManufacturer(string _upc) {\r\n//         require(products[_upc].productstate  == State.ForSaleByManufacturer);\r\n//         _;\r\n//   }\r\n\r\n\r\n//         modifier shippedByManufacturer(string _upc) {\r\n//         require(products[_upc].productstate  == State.ShippedByManufacturer);\r\n//         _;\r\n//         }\r\n       \r\n       \r\n//         modifier purchasedByBrand(string _upc) {\r\n//         require(products[_upc].productstate  == State.PurchasedByBrand);\r\n//         _;\r\n//         }\r\n         \r\n\r\n       \r\n        constructor () public  {\r\n            owner=msg.sender;\r\n            sku = 1;\r\n            productsku=1;\r\n            // Manufacturer manufacturer= new Manufacturer();\r\n            // Supplier supplier= new Supplier();\r\n            // Brand brand= new Brand();\r\n        }\r\n                   // allows you to convert an address into a payable address\r\n         \r\n        function itemBySupplier(string memory _upc, string memory _originsupplierName, string memory _originsupplierLatitude, string memory _originsupplierLongitude,string memory _materialtype, uint _price, uint  _quantity) public\r\n        // check address belongs to farmerRole\r\n        {\r\n       \r\n        // address manufacturerID; // Empty distributorID address\r\n        // address brandID; // Empty consumerID address\r\n       \r\n        // Item memory newProduce; // Create a new struct Item in memory\r\n        // newProduce.sku = sku;  // Stock Keeping Unit (SKU)\r\n        // newProduce.upc = _upc; // Universal Product Code (UPC), generated by the Farmer, goes on the package, can be verified by the Consumer\r\n        // newProduce.ownerID = msg.sender;  // Metamask-Ethereum address of the current owner as the product moves through 8 stages\r\n        // newProduce.originsupplierID = msg.sender; // Metamask-Ethereum address of the Farmer\r\n        // newProduce.originsupplierName = _originsupplierName;  // Farmer Name\r\n        // newProduce.originsupplierLatitude = _originsupplierLatitude; // Farm Latitude\r\n        // newProduce.originsupplierLongitude = _originsupplierLongitude;  // Farm Longitude\r\n        // newProduce.productPrice = _price;  // Product Price\r\n        // newProduce.creationTime = now;\r\n        // newProduce.quantity = _quantity;\r\n        // newProduce.itemState = defaultState; // Product State as represented in the enum above\r\n       \r\n        // newProduce.manufacturerID = manufacturerID; // Metamask-Ethereum address of the Distributor\r\n        // newProduce.brandID = brandID; // Metamask-Ethereum address of the Consumer // ADDED payable\r\n        items[_upc] = Item(sku,_upc,block.timestamp,msg.sender,msg.sender,_originsupplierName, _originsupplierLatitude ,_originsupplierLongitude,_price,_quantity,_materialtype,defaultState,'',address(0),address(0));\r\n\r\n        //items[_upc] = newProduce; // Add newProduce to items struct by upc\r\n         Txblocks memory txBlock; // create new txBlock struct\r\n        txBlock.FTD = placeholder; // assign placeholder values\r\n        txBlock.RTC = placeholder;\r\n        itemsHistory[_upc] = txBlock; // add txBlock to itemsHistory mapping by upc\r\n       \r\n\r\n        // Increment sku\r\n        sku = sku + 1;\r\n           emit logNewItem   ( _upc,'null', sku,msg.sender,_originsupplierName,   _originsupplierLatitude,  _originsupplierLongitude,  _materialtype, _price,  _quantity,0);\r\n       \r\n        // Emit the appropriate event\r\n        emit ProduceBySupplier(_upc);\r\n        // emit ForSaleBySupplier(_upc);\r\n       \r\n       \r\n        }\r\n      function orderByManufacturer(string memory desc) public view returns(address orderBy,string memory description){\r\n            return (msg.sender , desc);\r\n      }\r\n      function orderByBrand(string memory desc) public view returns(address orderBy,string memory description){\r\n            return (msg.sender , desc);\r\n      }\r\n     \r\n    //   function sellItemBySupplier(string memory _upc) public\r\n    //   // check msg.sender belongs to farmerRole\r\n    //     producedBySupplier(_upc) // check items state has been produced\r\n    //     verifyCaller(items[_upc].ownerID) // check msg.sender is owner\r\n    //     {\r\n    //     items[_upc].itemState = State.ForSaleBySupplier;\r\n    //     emit ForSaleBySupplier(_upc);\r\n    //     }\r\n       \r\n        function purchaseItemByManufacturer(string memory _upc, uint quantity, string memory _merchandizerId) public  \r\n         //producedBySupplier(_upc) // check items state has been produced\r\n        //verifyCaller(items[_upc].ownerID) // check msg.sender is owner// check msg.sender belongs to distributorRole\r\n        //forSaleBySupplier(_upc) // check items state is for ForSaleByFarmer\r\n        {\r\n        // transfer funds from distributor to farmer\r\n        items[_upc].ownerID = msg.sender; // update owner\r\n        items[_upc].manufacturerID = msg.sender; // update distributor\r\n       \r\n        items[_upc].itemState = State.PurchasedByManufacturer; // update state\r\n        items[_upc].merchandizerid=_merchandizerId;\r\n        //items[_upc].itemState = State.ReceivedByManufacturer; // update state\r\n       //mechsupquantity[_merchandizerId][items[_upc].originsupplierID]=quantity;\r\n       merhmap[_merchandizerId].push(items[_upc].originsupplierID);\r\n        itemsHistory[_upc].FTD = block.number; // add block number\r\n      //emit ForSaleBySupplier(_upc);\r\n        emit lognewPurchse   (_upc,block.timestamp,_merchandizerId, quantity,items[_upc].originsupplierID,itemsHistory[_upc].FTD);\r\n       \r\n        emit PurchasedByManufacturer(_upc);\r\n       \r\n       \r\n        //0xAb8483F64d9C6d1EcF9b849Ae677dD3315835cb2\r\n        //0x4B20993Bc481177ec7E8f571ceCaE8A9e22C02db\r\n        //0x78731D3Ca6b7E34aC0F824c42a7cC18A495cabaB\r\n        //0x617F2E2fD72FD9D5503197092aC168c91465E7f2\r\n        }\r\n        // function productMappings(string memory _productupc) public view returns(){\r\n        //     return()\r\n        // }\r\n        function shippedItemBySupplier(string memory _upc) public\r\n         // check msg.sender belongs to FarmerRole\r\n        //purchasedByManufacturer(_upc)\r\n        verifyCaller(items[_upc].originsupplierID) // check msg.sender is originFarmID\r\n        {\r\n         \r\n        items[_upc].itemState = State.ShippedBySupplier; // update state\r\n        emit ShippedBySupplier(_upc);\r\n        }\r\n       \r\n//         function receivedItemByManufacturer(string memory _upc, uint quantity, address _merchandizerId) public\r\n//          // check msg.sender belongs to DistributorRole\r\n//         //shippedBySupplier(_upc)\r\n//         verifyCaller(items[_upc].ownerID) // check msg.sender is owner\r\n//         {\r\n           \r\n//         items[_upc].itemState = State.ReceivedByManufacturer; // update state\r\n//       mechsupquantity[_merchandizerId][items[_upc].originsupplierID]=quantity;\r\n// merhmap[_merchandizerId].push(items[_upc].originsupplierID);\r\n       \r\n//         emit lognewPurchse(_upc,block.timestamp,_merchandizerId,0,0,0);\r\n//         emit ReceivedByManufacturer(_upc);\r\n//         }\r\n       \r\n       \r\n        function processedItemByManufacturer(string memory _upc,string memory  _machine, string memory _productupc, string memory _merchandizerId,string memory _treatements , string memory _empaddress) public\r\n         // check msg.sender belongs to DistributorRole\r\n        //receivedByManufacturer(_upc)\r\n        //verifyCaller(items[_upc].ownerID) // check msg.sender is owner\r\n        {\r\n           \r\n        address brandID;\r\n        products[_productupc] = Denim(_treatements,_productupc,msg.sender,State.ProcessedByManufacturer,productsku,brandID, _empaddress ,block.timestamp,msg.sender,_merchandizerId,_machine,_upc);\r\n        uint256 batchno= uint256(keccak256(abi.encodePacked(msg.sender, block.timestamp)));\r\n       \r\n        idToProof[batchno].push(products[_productupc]);\r\n\r\n       \r\n        itemsHistory[_productupc].PM = block.number; // add block number\r\n        products[_productupc].productstate= State.ProcessedByManufacturer;\r\n        productsku = productsku + 1;\r\n        emit logNewItem   ( _productupc,'',productsku,msg.sender,  _treatements,'null','null','null',0,0,batchno);\r\n        emit LogProductDetails(products[_productupc].itemsUPC,products[_productupc].machine_id, products[_productupc].empID);\r\n        emit ProcessedByManufacturer(_productupc);\r\n        }\r\n       \r\n   \r\n        function packageItemByDistributor(string memory _productupc) public\r\n         // check msg.sender belongs to DistributorRole\r\n        //processByManufacturer(_productupc)\r\n        //verifyCaller(products[_productupc].ownerID) // check msg.sender is owner\r\n        {\r\n       \r\n        products[_productupc].productstate= State.PackagedByManufacturer;\r\n        //itemsHistory[_productupc].PPA = block.number; // add block number\r\n        emit PackagedByManufacturer(_productupc);\r\n        }\r\n       \r\n        // function sellItemByManufacturer(string memory _productupc) public\r\n        //  // check msg.sender belongs to DistributorRole\r\n        // //packagedByManufacturer(_productupc)\r\n        // //verifyCaller(products[_productupc].manufacturerID) // check msg.sender is owner\r\n        // {\r\n       \r\n       \r\n        // emit logNewItem(_productupc,'null',0,address(0),\"null\",\"null\",'null','null',0,0,0);\r\n        // emit ForSaleByManufacturer(_productupc);\r\n        // }\r\n        function purchaseItemByBrand(string memory _productupc) public\r\n        // check msg.sender belongs to ConsumerRole\r\n        //forSaleByManufacturer(_productupc)\r\n        {\r\n        products[_productupc].brandID = msg.sender;\r\n        //items[_upc].brandID=msg.sender;\r\n        products[_productupc].ownerID = msg.sender;\r\n        products[_productupc].productstate= State.ForSaleByManufacturer;\r\n        products[_productupc].productstate = State.PurchasedByBrand;\r\n                //idToProof[_batchno].push(  products[_productupc]);\r\n\r\n        itemsHistory[_productupc].RTC = block.number;\r\n        emit lognewPurchse(_productupc,block.timestamp,'',0,products[_productupc].brandID,0);\r\n        emit PurchasedByBrand(_productupc);\r\n        }\r\n        function shippedItemByDistributor(string memory _productupc ,uint _shipmentAgent) public\r\n         // check msg.sender belongs to DistributorRole\r\n        //purchasedByBrand(_productupc)\r\n        verifyCaller(products[_productupc].manufacturerID) // check msg.sender is distributorID\r\n        {\r\n            //products[_productupc].ShipmnetAgent=_shipmentAgent;\r\n        products[_productupc].productstate = State.ShippedByManufacturer;\r\n        emit lognewPurchse(_productupc,block.timestamp,'',_shipmentAgent,address(0),0);\r\n        emit ShippedByManufacturer(_productupc);\r\n        }\r\n       \r\n        function fetchItemBufferOne(string memory _upc) public view returns\r\n        (\r\n        uint    itemSKU,\r\n        string  memory  itemUPC,\r\n        address ownerID,\r\n        address originSupplierID,\r\n        string memory  originSupplierName,\r\n        string memory originSupplierLatitude,\r\n        string memory originSupplierLongitude,\r\n        uint price,\r\n        uint creationtime\r\n        )\r\n        {\r\n        // Assign values to the 8 parameters\r\n        Item memory item = items[_upc];\r\n   \r\n        return (item.sku,\r\n          item.upc,\r\n          item.ownerID,\r\n         item.originsupplierID,\r\n          item.originsupplierName,\r\n          item.originsupplierLongitude,\r\n          item.originsupplierLatitude,\r\n          item.productPrice,\r\n          item.creationTime\r\n        );\r\n  }\r\n      function fetchItemBufferTwo(string memory _upc) public view returns\r\n        (\r\n        uint    itemSKU,\r\n        string memory   itemUPC,\r\n        string memory materialtype,\r\n        State   itemState,\r\n        address manufacturerID,\r\n        address brandID,\r\n        string memory merchandizerid\r\n        )\r\n        {\r\n          // Assign values to the 9 parameters\r\n        Item memory item = items[_upc];\r\n        return\r\n        (\r\n          item.sku,\r\n          item.upc,\r\n          item.materialtype,\r\n          item.itemState,\r\n          item.manufacturerID,\r\n          item.brandID,\r\n          item.merchandizerid\r\n        );\r\n\r\n  }\r\n   function fetchItemBufferThree(string memory _productupc) public view returns\r\n        (\r\n        uint    itemSKU,\r\n        string memory  itemUPC,\r\n        address manufacturerID,\r\n        address brandID,\r\n        string memory merchandizerid,\r\n        string memory treatement,\r\n        State   itemState,\r\n        string memory  empID,\r\n        string memory machine_id,\r\n        uint time\r\n        )\r\n        {\r\n          // Assign values to the 9 parameters\r\n        Denim memory product = products[_productupc];\r\n        return\r\n        (\r\n          product.productsku,\r\n          product.itemsUPC,\r\n          product.manufacturerID,\r\n          product.brandID,\r\n          product.merchandizerid,\r\n          product.treatements,\r\n          product.productstate,\r\n          product.empID,\r\n          product.machine_id,\r\n          product.creationTime\r\n         \r\n   \r\n        );\r\n\r\n  }\r\n    function fetchitemHistory(string memory _upc, string memory _productupc) public view returns\r\n        (\r\n          uint blockSupplierToDistributor,\r\n          uint blockManufacturerToBrand,\r\n          uint blockpurchsetoprocess,\r\n          uint blockprocesstopacakge\r\n        )\r\n        {\r\n          // Assign value to the parameters\r\n          Txblocks memory txblock = itemsHistory[_upc];\r\n          return\r\n          (\r\n            txblock.FTD,\r\n            itemsHistory[_productupc].RTC,\r\n            itemsHistory[_productupc].PM,\r\n            itemsHistory[_productupc].PPA\r\n   \r\n          );\r\n   \r\n        }\r\n\r\n\r\n\r\n   } \r\n",
  "sourcePath": "E:/nodeweb3/ethereuem/contracts/exmaple.sol",
  "compiler": {
    "name": "solc",
    "version": "0.5.16+commit.9c3226ce.Emscripten.clang"
  },
  "schemaVersion": "3.3.2",
  "updatedAt": "2021-05-24T12:48:43.369Z",
  "networkType": "ethereum",
  "devdoc": {
    "methods": {}
  },
  "userdoc": {
    "methods": {}
  }
}